:020000040000fa
:080000001011040000000000d3
:020000040000fa
:102220008fc220000eff27000e0188000000000072
:10223000000020000000e000020032000001200049
:10224000200288000c000700004923000100200044
:102250000f000700000020000000e0000200320034
:102260000000020000000000063402000000000030
:102270000040da000000fe00200020000000e00026
:1022800002003200100020009001880000000600cb
:10229000a1028800800078000000eb001a003700df
:1022a000e280400054a0b4009101ba00e2804000f6
:1022b00054a0b4009102ba00e280400054a0b400df
:1022c0000002eb00472bde00f507b200a6018800f4
:1022d000602ce10008003a000049eb000201e80030
:1022e000020039003420ec0002f0a0008301e90074
:1022f000f9ff3e00040037006128e10001003200d0
:102300000082eb00040007001101ba000200e000a7
:10231000e3ff3a000000060004d0a300e20f4900ea
:102320001c003900810278003549ba000201e8003a
:10233000020039003420ec0002f0a0008301e90023
:102340000f0032002549ba000201e80002003900fe
:102350003420ec0002f0a0008301e9000800320004
:102360000400e0000600320015c9ba000201e800ce
:10237000020039003420ec0002f0a0008301e900e3
:102380008180e80054a0b4000300e000e2ff3a00be
:10239000000006009102ba00055978008301e900a7
:1023a000f7ff3200c82ade00055978008301e900f2
:1023b000f3ff32000400e000f1ff320011d9ba004f
:1023c000eeff37006c2d040000000000282d0400f3
:1023d00000000000902d04000000000062280400ae
:1023e000000000003028040000000000d428040091
:1023f000000000009e2804000000000052150400a8
:10240000000000009615040000000000761504008e
:1024100000000000841604000000000003f0a20089
:10242000889fbe008a9fbe008c1f7800f7000700bf
:10243000fe0033006450e1004f0032006420e100f0
:102440005200320003826c0007003b000905d000f7
:102450000306d000820f54000c065d000200390014
:102460000200320089017800030678008582550059
:1024700004003d000003fd008103fd008502ea0029
:102480008b854200840f720002003b006000100048
:10249000e08018006011b8000005eb007a28e10028
:1024a0000a00390006007800c75ddd00f707b200ba
:1024b000878075002d003700828171000a01780045
:1024c000610560008180d1000080d3008502e900b1
:1024d000f9ff3b00060440008784480002003b00ef
:1024e00060041400e0841c000988a3000700320087
:1024f0008a81710082817100610164008904d100c8
:102500000884d3008b05e800170037000978a30082
:1025100013003a000b00e000130034008b05e900c3
:102520000804440089844c000a4474000978a3001c
:102530000d003a000b00e000070034008b05e900b5
:102540000804440089844c0001003a000b0020007c
:102550000978a300f7ff32000001eb00020037000a
:10256000828171000a0178006d0007000cf0a7005d
:1025700001f0a000b60037006420e10002003a003c
:10258000838f6c00b60033000801be000200be005d
:10259000af003700889fbe008a9fbe008c1f780066
:1025a0009a000700a100330003866c006450e1002c
:1025b0002e0032006420e100330032006150e1005f
:1025c0002f0032006120e100310032008585550086
:1025d000eb07b000090020000804200005003700c8
:1025e0000804440089844c000a00310006034300bb
:1025f00087834b000001530081815b00f8ff3300ab
:102600000203be000800a0000804440089844c00b6
:10261000f6ff3900c639dd00830173000100320086
:10262000130020008904d1000884d3000998a30076
:10263000050032000800a7000300a0008904d100b3
:102640000884d3008b05e8008904d1000884d300f6
:102650000001eb000281d2003100070001f0a1006f
:102660000cf0a70001f0a000790037006420e10021
:102670007b0032000801be000200be00f7ff3700f9
:102680006120e100760032006000b800f3ff3700ff
:102690000000200001f82700f0ff370014002000a0
:1026a000b6003700f4ff2f00b40037000001be0071
:1026b000410007000470a70003f0a10003f8a30085
:1026c00013003a006509b10010003200090035001e
:1026d0006928e10002003500010028000000050023
:1026e00000004000818048008502e900fcff3a00bc
:1026f00000000600f88f4200050035008100d1007f
:102700000080d3008502e800fcff3a0000000600cc
:102710008000eb00000005006011b800b200370037
:1027200081002000618055000b003d000b0020005f
:1027300061fe2f000100e1001d0034008281710064
:10274000610164008904d1000884d3000000e8001e
:10275000faff3a007100200061006400030070007d
:10276000020060000900320061044400e0844c0073
:102770000988a500050032008b05e8006808e10023
:1027800002003a008904d1000884d300f20f20002f
:102790000258e10005003d00c75ddd00f907b20009
:1027a0008980750008007800000006000bf82700fb
:1027b0008b00780000000500c70ade00f107b200b8
:1027c000f50fb20008003200e1cf420002003200f3
:1027d0000170a00024000500810f7000010032008c
:1027e0000408050044000500810f700002003a0053
:1027f000140005008502e9000000400081c0480087
:10280000fcff3b000170a000240005000004be0096
:10281000e9ff07000003be000405be000200be0081
:10282000e5ff0700844f7500000006000200be00af
:102830006450e100050036006420e100020036002b
:102840000968a30001003a000800be000160a00072
:102850004f0678004f05be004f04be000000060082
:10286000f0ff2f00f1ff2700f9ff3700889fbe001f
:102870008a9fbe008c1f7800e4ff0700ebff330047
:1028800003866c006450e100240032006420e10003
:10289000270032006150e100220032006120e10097
:1028a000210032008b854200eb07b1000134b800f3
:1028b000003ab8000804420089844a00013ab8008e
:1028c0000030b8008880400009014a00040033004d
:1028d0000000400081804800020149008b05e900aa
:1028e000c909dd00830170000100320013002000df
:1028f000c814de004814dd004709de001200b200f3
:10290000c808de000884700085ff070001f0a10000
:102910000cf0a70001f0a000cdff37006120e1001e
:10292000cfff32000801be000200be00f7ff3700f3
:102930006150e100fcff3a00c9ff37006022b80097
:10294000060220000000d0008180d2000482d20064
:102950008582d2000000a0000202520083825a0049
:10296000030031000202420083824a000000a100fd
:102970000603e900f3ff3a0000000600889fbe004e
:102980008a9fbe00841f7800a0ff07004f007800d8
:1029900011003300f0ff2f00838f6c0006003b0016
:1029a000040565000a00a7000800370009f0a6002a
:1029b0001000200008003700820f5400838f5c0055
:1029c000030039001000200001003e00000020003c
:1029d00009f0a7000000ea004f05be004f04be004a
:1029e0000000e00000000600889fbe008a9fbe0035
:1029f000008270000402710004827100260032001f
:102a00000004be000200be006011b8006b09200087
:102a1000950220000182cf000a0039000541b10073
:102a20000082cf00070039000541b1000982cf00c4
:102a3000040039000541b1000882cf0001003900cf
:102a40000541b10005425200120032000a003b006d
:102a500082817100610164008100d1000080d30097
:102a60008984d3000884d3008b05e8000442e80081
:102a7000f7ff3a00070037000804440089844c003f
:102a800000004800818048008b05e9000442e9000d
:102a9000f9ff3a0022ff07004f05be004f04be00b9
:042aa000000006002c
:020000040000fa
:020000040002f8
:04aff400031c00003a
:020000040000fa
:020000040002f8
:04aff8000f890000bd
:020000040000fa
:020000040002f8
:04affc007f3e000094
:020000040000fa
:102000001011040000000000c234040000000000b1
:10201000c234040000000000c234040000000000cc
:10202000c234040000000000c234040000000000bc
:10203000c234040000000000c234040000000000ac
:10204000c2340400000000005a2304000000000015
:10205000c234040000000000c2340400000000008c
:102060008023040000000000a623040000000000fc
:10207000c234040000000000c2340400000000006c
:102080005e17040000000000381704000000000084
:10209000c234040000000000c2340400000000004c
:1020a000c234040000000000c2340400000000003c
:1020b000c234040000000000c2340400000000002c
:1020c000c234040000000000c2340400000000001c
:1020d000c234040000000000c2340400000000000c
:1020e000cc23040000000000f223040000000000e4
:1020f000c234040000000000aa1704000000000021
:102100008417040000000000c23404000000000036
:10211000c234040000000000c234040000000000cb
:10212000c234040000000000c234040000000000bb
:10213000c234040000000000c234040000000000ab
:10214000c234040000000000c2340400000000009b
:10215000c234040000000000c2340400000000008b
:10216000c234040000000000c2340400000000007b
:10217000c234040000000000c2340400000000006b
:10218000c234040000000000c2340400000000005b
:10219000c234040000000000c2340400000000004b
:1021a000c234040000000000c2340400000000003b
:1021b000c234040000000000f61704000000000014
:1021c000d017040000000000c2340400000000002a
:1021d000c234040000000000c2340400000000000b
:1021e000c234040000000000421804000000000097
:1021f0001c18040000000000c234040000000000ad
:10220000c234040000000000c234040000000000da
:10221000c234040000000000c234040000000000ca
:020000040000fa
:1000080004100000081000000c1000001010000080
:10001800141000000c1100000c1100000c1100005d
:10002800181000001c100000201000002410000010
:100038000c110000281000002c10000030100000e7
:1000480034100000381000003c1000004010000080
:1000580044100000481000000c1100000c110000b2
:100068004c10000050100000541000005810000000
:100078005c1000000c11000060100000641000000b
:100088000c110000681000006c10000070100000d7
:1000980074100000781000007c1000008010000030
:1000a80084100000881000000c1100000c110000e2
:1000b8000c1100008c10000090100000941000003b
:1000c800981000009c100000a0100000a410000070
:1000d800a8100000ac1000000c1100000c1100006a
:1000e8000c110000b0100000b41000000c1100004a
:1000f8000c110000b8100000bc1000000c1100002a
:100108000c1100000c1100000c1100000c11000073
:100118000c1100000c110000c01000000c110000b0
:100128000c110000c4100000c8100000cc10000022
:100138000c1100000c1100000c1100000c11000043
:10014800d01000000c1100000c1100000c11000070
:100158000c110000d41000000c1100000c1100005c
:100168000c110000d8100000dc100000e0100000a6
:10017800e4100000e8100000ec100000f01000008f
:10018800f4100000f8100000fc100000001100003e
:1001980004110000081100000c1100000c110000ef
:1001a8000c1100000c1100000c1100000c110000d3
:1001b8000c1100000c1100000c1100000c110000c3
:1001c8000c1100000c1100000c1100000c110000b3
:1001d8000c1100000c1100000c1100000c110000a3
:1001e8000c1100000c1100000c1100000c11000093
:0801f8000c1100000c110000c5
:020000040000fa
:102aa4000400fa00000f780021479800000000009d
:102ab4001e02780014029000940278000420200082
:102ac40004826200e00f5200f9ff3a001e0278000f
:102ad40024029000ae4290008582fb00050a780033
:102ae4000080fa00000006000200fa00000f7800df
:102af400000000001e027800140290001402780006
:102b040061026200e00f5200faff32001e027800f8
:102b140034029000140278000442780004407800e3
:102b24000080fa00000006000400fa00000f78009c
:102b340021479800000000001e027800d412900083
:102b44001e02780024129000848f5200faff320093
:102b54001e027800941290001e0278004412900025
:102b6400048242002e409000004a78001e02780041
:102b7400441290008402e8001e027800241290009f
:102b8400110009008482d8000102780084027800d0
:102b94001e027800451298001e027800541290001c
:102ba4008402e8001e027800551298001e02780084
:102bb400d41290001e027800341a9000848f5200c0
:102bc400080039001e027800140290009e0278006a
:102bd400950290001503780005402000868272005b
:102be400050a78000080fa00000006000400fa00dc
:102bf400100798001e029000540290009e0290005c
:102c0400d5029000150378009e029000e54a9000da
:102c14008582fb0017002000853add008582ea00ea
:102c240085026300050a78001e0290005412900089
:102c3400e00f520025003a001e029000140290009a
:102c44009e0290009502900015037800f5bf2f00b6
:102c540085026300050a78001d0037001e029000fb
:102c6400941290001e0290003412900004824200dc
:102c7400144f78001e029000341290008402e80081
:102c84001e02900024129000110009008482d800d2
:102c940001027800840278001e0290003512980028
:102ca4001e029000541290008402e9001e0290005b
:102cb400551298001e029000240290001e437800d2
:102cc4008682fb00050a780001003700000000003e
:102cd4001e02900014029000940278000420200048
:102ce40004826200e00f520004003a001e029000c9
:102cf40054129000e00f5200d8ff3a000080fa000e
:102d0400000006000400fa0010079800000000000c
:102d14001e029000241a9000e00f5200fcff3200c3
:102d24001e029000e41290001e029000041a90000b
:102d340004824200144f78001e029000041a90008e
:102d44008402e8001e029000741290001100090031
:102d54008482d80001027800840278001e02900068
:102d6400051a98001e029000241a90008402e900bb
:102d74001e029000251a98001e4278000440780034
:102d84000080fa00000006000200fa00000f78003c
:102d94001e027800540290009e027800d502900032
:102da400150378009e027800f54a90008582fb00a6
:102db40017002000853add008582ea008502630061
:102dc400050a78001a0037001e027800e412900009
:102dd4001e027800141a9000048242009e027800b9
:102de400b50290009502780085427800054a780083
:102df4001e027800141a90008402e8001e02780073
:102e040074129000110009008482d8000102780035
:102e1400840278001e027800151a98001e027800b9
:102e2400241a90008402e8001e027800251a9800f3
:102e34001e027800140290001402780061026200fd
:102e440004427800e04f5200060032001e0278006f
:102e5400a41a90001e02780074129000848f52000d
:102e6400d9ff3a000080fa00000006003600f8009e
:102e7400809fbe00829fbe00849fbe00869fbe00ce
:102e84003200f80010002000900188000000fa00d1
:102e9400809b200055ff07000080fa003200f900f3
:102ea4004f03be004f02be004f01be004f00be00e4
:102eb4003600f900004006003600f800809fbe008e
:102ec400829fbe00849fbe00869fbe003200f80031
:102ed40010002000900188000000fa00809b200070
:102ee400a9ff07000080fa003200f9004f03be007a
:102ef4004f02be004f01be004f00be003600f90075
:102f0400004006003600f800809fbe00829fbe008d
:102f1400849fbe00869fbe003200f800100020008f
:102f2400900188000000fa00409f20002fff070056
:102f34000080fa003200f9004f03be004f02be00c9
:102f44004f01be004f00be003600f90000400600ed
:102f54003600f800809fbe00829fbe00849fbe00a2
:102f6400869fbe003200f800100020009001880007
:102f74000000fa00409f200083ff07000080fa0051
:102f84003200f9004f03be004f02be004f01be00e5
:102f94004f00be003600f900004006003600f8007d
:102fa400809fbe00829fbe00849fbe00869fbe009d
:102fb4003200f80010002000900188000000fa00a0
:102fc40000a3200009ff07000080fa003200f90086
:102fd4004f03be004f02be004f01be004f00be00b3
:102fe4003600f900004006003600f800809fbe005d
:102ff400829fbe00849fbe00869fbe003200f80000
:1030040010002000900188000000fa0000a32000b6
:103014005dff07000080fa003200f9004f03be0094
:103024004f02be004f01be004f00be003600f90043
:10303400004006003600f800809fbe00829fbe005c
:10304400849fbe00869fbe003200f800100020005e
:10305400900188000000fa00c0a62000e3fe0700eb
:103064000080fa003200f9004f03be004f02be0098
:103074004f01be004f00be003600f90000400600bc
:103084003600f800809fbe00829fbe00849fbe0071
:10309400869fbe003200f8001000200090018800d6
:1030a4000000fa00c0a6200037ff07000080fa00e5
:1030b4003200f9004f03be004f02be004f01be00b4
:1030c4004f00be003600f900004006000800fa0078
:1030d4001007980021079800320798001e029000fc
:1030e400e00f520029003500e10f520003003400c4
:1030f400e20f520013003200250037000002eb00fb
:10310400040f78000a0037002e02900094427800e1
:103114002e0290000402e800240798004455800021
:103124008540780004007800610407001e0fe80061
:103134009e0278003e029000848f5200f2ff390014
:10314400130037000002eb00040f78000a00370078
:103154002e029000944278002e0290000402e800af
:1031640024079800545580008540780004007800b6
:103174004f0407001e0fe8009e0278003e029000f4
:10318400848f5200f2ff3900010037000000000074
:103194003e029000040078000080fa00000006005f
:1031a4000000fa006c0a0700446d2000841f7800b8
:1031b4005701200086c0b3008082eb0064c0b300d6
:1031c4008001eb00022f2000212f2000c0aa200044
:1031d400790b07008f87e900a46d2000841f780015
:1031e400a70120000043eb008082eb0074c0b30011
:1031f4008001eb00022f2000212f200020ac2000b2
:103204006d0b07008f87e90044002000841f7800bd
:1032140034002000841f780084c0b300841f780029
:103224000042eb00841f7800446a2000841f780069
:10323400446a2000841f7800b4c0b300841f78005f
:10324400c4c0b300841f780047092000460820004a
:103254008522200064222000432220002222200014
:1032640001222000809b20006b000700f08757009c
:1032740064002000841f780054002000841f78001c
:1032840084c0b300841f78000042eb00841f7800e0
:10329400646a2000841f7800646a2000841f780018
:1032a400e4c0b300841f7800f4c0b300841f780026
:1032b400670920006608200085232000642320007d
:1032c400432320002223200001232000409f2000cc
:1032d40051000700f0875700d4012000841f7800b4
:1032e400c4012000841f780084c0b300841f7800c8
:1032f40084c0b300841f7800a46a2000841f78006f
:10330400246a2000841f780024c0b300841f78003e
:1033140034c0b300841f7800e7092000e6082000c9
:103324008525200064252000432520002225200037
:103334000125200000a3200037000700f087570074
:10334400f4012000841f7800e4012000841f780029
:1033540084c0b300841f78000042eb00841f78000f
:10336400646b2000841f7800646b2000841f780045
:1033740084c0b300841f780094c0b300841f780015
:10338400e7092000e6082000852b2000642b20009c
:10339400432b2000222b2000012b2000c0a620005c
:1033a4001d000700f08757000002eb00841f78001f
:1033b4000002eb00841f78000002eb00841f7800f9
:1033c4000002eb00841f78000002eb00841f7800e9
:1033d40014002000841f7800e5c4b3000600200018
:1033e400676924000002eb008001eb0022ac20009e
:1033f400c1aa2000809b200072000700ec875700c0
:10340400849b200044558800849b200054558800e8
:103414000080fa00000006001000fa00000f780097
:103424001107980022079800330798004407980072
:103434005507980066079800770798001e027800e1
:103444009e029000050a78001e027800ae029000e9
:10345400150298001e027800be0290002502980012
:103464001e027800ce029000350298001e027800f9
:10347400de029000450298001e027800ee029000e1
:10348400550298001e027800fe0290006502980022
:103494001e0278008efa9700654a98001e02780092
:1034a400eef29700754a98001e027800aeba9700b3
:1034b400050a98001e0278009eba9700150a980023
:1034c4001e0278008ef29700455298001e02780082
:1034d400eeea9700555298001e027800eeb297006b
:1034e400350a98001e027800deb29700450a98005b
:1034f4001e0278008002eb00550a98001e02780034
:103504008002eb00650a98001e0278008002eb003e
:10351400750a98001e0278008002eb0005129800dc
:103524001e0278008002eb00151298001e0278003b
:103534008002eb00251298001e0278008002eb0046
:10354400351298001e0278008002eb0045129800a4
:103554001e0278008002eb00551298001e027800cb
:103564008002eb00651298001e0278008002eb00d6
:10357400751298001e0278008002eb00051a98006c
:103584001e0278008002eb00151a98001e027800d3
:103594008002eb00251a98001e0278001500200016
:1035a400351a98001e0278008002eb00451a980034
:1035b4001e0278008002eb00551a98000080fa0081
:1035c400000006001000fa00881f7800000f780041
:1035d40011079800220798003307980044079800c1
:1035e4005607980067079800654f98001e027800f8
:1035f400140278008002eb00050a78001e02900095
:1036040064029000e10f42001b0232002e0290007f
:1036140064029000e10f4200190232001e02900081
:10362400040a9000e00f520069003a002e02900054
:10363400040a9000e00f520065003a001e0090005a
:10364400b00a07001e0090000b0b07002e0090002c
:10365400850a07001e0278009e029000550a980011
:103664001e0290009e027800050a98001e02900037
:103674008002eb00150a98001e0290008002eb0005
:10368400250a98001e027800ae029000650a980090
:103694002e0290009e027800050a98002e029000e7
:1036a4008002eb00150a98002e0290008002eb00c5
:1036b400250a9800153a8000f40b20000483620068
:1036c400640420007505200027742000844b7800d2
:1036d400854b7800864b78001e029000740290009f
:1036e4009e029000f5029000150378009e0290005f
:1036f400a54a90008582fb00f7032000853add008f
:103704008582ea0085026300050a78001e029000a3
:10371400740290009e029000f50290001503780058
:103724009e027800b50b90009e029000a54a90007e
:103734008582fb00853add0086827200050a7800e6
:103744001e027800040a90009e027800850a900008
:10375400150378009e027800c55290008582fb0014
:10376400f7032000853add008582ea0085026300c4
:10377400050a78001e027800040a90009e02780070
:10378400850a900015037800ae029000e5039000ce
:103794009e027800c55290008582fb00853add00c8
:1037a40086827200050a7800153a8000040420001d
:1037b40005037200640420007505200027742000ae
:1037c400844b7800854b7800864b78000a003700dc
:1037d4001e027800d40a90001e029000848f5200ca
:1037e400a9013a001e027800e40a90002e0290001b
:1037f400848f5200a6013a003e029000e00f52006e
:10380400870032004e029000e00f52008400320024
:103814003e02900064029000e10f42009e013200db
:103824004e02900064029000e10f42009c013200bd
:103834003e029000040a9000e00f520069003a0032
:103844004e029000040a9000e00f520065003a0016
:103854003e0090002b0a07003e009000860a0700f5
:103864004e009000000a07001e027800be0290007d
:10387400750a98003e0290009e027800050a98009e
:103884003e0290008002eb00150a98003e02900070
:103894008002eb00250a98001e027800ce029000f8
:1038a400051298004e0290009e027800050a9800c6
:1038b4004e0290008002eb00150a98004e02900020
:1038c4008002eb00250a9800153a8000f40b2000d2
:1038d400048362006404200075052000277420001e
:1038e400844b7800854b7800864b78003e0290002c
:1038f40074029000be029000f50290001503780057
:10390400be029000a54a90008582fb00f7032000c8
:10391400853add008582ea0085026300050a7800a5
:103924003e02900074029000be029000f5029000e6
:10393400150378009e027800c50b9000be0290002b
:10394400a54a90008582fb00853add0086827200dc
:10395400050a78001e027800140a90009e0278007e
:10396400950a9000150378009e027800d5529000c5
:103974008582fb00f7032000853add008582ea009a
:1039840085026300050a78001e027800140a90007c
:103994009e027800950a900015037800ce029000ec
:1039a400e50390009e027800d55290008582fb00ca
:1039b400853add0086827200050a7800153a800097
:1039c400040420000503720064042000750520002f
:1039d40027742000844b7800854b7800864b780050
:1039e4000a0037001e027800f40a90003e0290009c
:1039f400848f52002c013a001e0278008412900039
:103a04004e029000848f520029013a001e02780071
:103a14001402780005202000050a7800060037000b
:103a24003e029000e00f520023013a004e02900043
:103a3400e00f520022013a0018c0b30002402200f5
:103a440043a724005e009000ee00900014fb0700e2
:103a540000027800e00f520001003c000044eb003b
:103a6400e04f5400040032000440220045a7240023
:103a7400540798006507980018c0b300024022005c
:103a8400431724005e009000ee00900002fb070044
:103a940000027800e00f5200010035000044eb0002
:103aa400e04f540004003200044022004517240073
:103ab400540798006507980018c0b300024022001c
:103ac400432724005e009000ee009000f2fa070005
:103ad40000027800e00f5200010034000044eb00c3
:103ae400e04f5400140032001e0278004404900099
:103af4005e019000ee0190000040220041972400f6
:103b0400a3fa07000002be000200200003f0230015
:103b14000400be0041fa07000002be000400be001b
:103b2400e1fa07000002be00040278000402e90082
:103b3400040c78001a0037001e0278001402780082
:103b44009e02780095027800950278000530a00066
:103b5400050a78001e027800440490005e0190007b
:103b6400ee0190000040220041a7240088fa0700db
:103b74000002be000200200003f023000400be0087
:103b840026fa07000002be000400be00c6fa0700c1
:103b94000002be00040278000402e900040c78006c
:103ba400ee4a900054c4b30084cf520004003200a3
:103bb400ee4a900054c6b30084cf520008003a0085
:103bc4001e027800140278009e02780095027800a4
:103bd400950278000510a000050a78001800370047
:103be400ee4a9000f4c4b30084cf520004003200c3
:103bf400ee4a9000f4c6b30084cf520008003a00a5
:103c04001e027800140278009e0278009502780063
:103c1400950278000520a000050a78000800370006
:103c2400ee4a9000e4c4b30084cf52000400320092
:103c3400ee4a9000e4c6b30084cf5200a2003a00da
:103c44004eba9700e20f520008003a001e027800b4
:103c5400140278009e02780095027800950278009c
:103c64000500a000050a7800030037004eba97004b
:103c7400e10f520096003a002eba9700e00f52006e
:103c840004003a001e02780025552100451a9800c8
:103c9400360037001e027800140290009e0278005d
:103ca40095029000150378000500220086827200b8
:103cb400050a78001e027800aeba97001512980023
:103cc4001e0278009eba9700251298001e02780002
:103cd4008002eb00351298001e0278008002eb008f
:103ce400451298001e0278008002eb0055129800dd
:103cf4001e027800beba9700351a98001e0278009a
:103d040065592100451a98001e027800540290005b
:103d14009e027800d5029000150378009e02780078
:103d2400e54a90008582fb0017002000853add00fb
:103d34008582ea0085026300050a78001e02780085
:103d4400640290009e027800e5029000150378005a
:103d54009e027800e54a90008582fb00170020004f
:103d6400853add0086827200050a78000eba970053
:103d7400e00f520004003a001e027800655721004b
:103d8400551a98002b0037001e0278008eba97004f
:103d9400651298001e027800feb297007512980012
:103da4001e0278008002eb00051a98001e027800bb
:103db4008002eb00151a98001e0278008002eb00c6
:103dc400251a98001e02780045682100551a9800ab
:103dd4001e027800540290009e027800d5029000e2
:103de400150378009e027800f54a90008582fb0056
:103df40017002000853add008582ea008502630011
:103e0400050a78001e027800640290009e02780081
:103e1400e5029000150378009e027800f54a9000b0
:103e24008582fb0017002000853add00868272003f
:103e3400050a78001e027800140278009e027800b9
:103e44009502780015037800050028008682720028
:103e5400050a78001e027800140290009e02780081
:103e640095029000150378000540200086827200b8
:103e7400050a78001700370000000000150037001d
:103e8400000000001300370000000000110037009c
:103e9400000000000f003700000000000d00370094
:103ea400000000000b00370000000000090037008c
:103eb4000000000007003700000000000500370084
:103ec400000000000300370000000000010037007c
:103ed400000000004f0478000080fa000000060093
:103ee4000200fa00000f78001e027800140290000d
:103ef4009e0278009502900015037800f5bf2f000c
:103f040085026300050a78001e0278001402780016
:103f14008002eb00050a78001e027800640290001b
:103f24009e027800e5029000150378009e02780056
:103f3400e54a90008582fb0017002000853add00e9
:103f44008582ea0085026300050a78001e02780073
:103f5400640290009e027800e50290001503780048
:103f64009e027800f54a90008582fb00170020002d
:103f7400853add008582ea0085026300050a78003f
:103f84001e0278008002eb00451a98001e02780099
:103f94008002eb00551a98001e027800540a900023
:103fa400e00f520031003200153a8000f40b20007b
:103fb4000483620064042000750520002774200037
:103fc400844b7800854b7800864b78001e0278007d
:103fd400540a9000740290009e027800d50a900062
:103fe400f5029000150378009e027800d50a90002f
:103ff400a54a90008582fb00f7032000853add0086
:104004008582ea0085026300050a7800153a80007b
:1040140004042000050372006404200075052000d8
:1040240027742000844b7800854b7800864b7800f9
:104034001e027800540a90008002eb00050a9800e2
:104044001e027800540a9000040078002d0807002e
:104054001e027800540a90000400780086080700c5
:104064001e0278008002eb00550a98001e027800b8
:10407400640a9000e00f520029003200153a8000d3
:10408400f40b200004836200640420007505200002
:1040940027742000844b7800854b7800864b780089
:1040a4001e027800040a90009e027800850a90009f
:1040b400150378009e027800c55290008582fb00ab
:1040c400f7032000853add0086827200050a780035
:1040d400153a8000040420000503720064042000e3
:1040e4007505200027742000844b7800854b7800e8
:1040f400864b78001e027800640a90008002eb0070
:10410400050a98001e027800640a900004007800f2
:10411400d50707001e0278008002eb00650a9800ac
:104124001e027800740a9000e00f52003100320041
:10413400153a8000f40b200004836200640420001c
:104144007505200027742000844b7800854b780087
:10415400864b78001e027800740a90007402900066
:104164009e027800f50a9000f5029000150378008d
:104174009e027800f50a9000a54a90008582fb0013
:10418400f7032000853add008582ea00850263009a
:10419400050a7800153a8000040420000503720023
:1041a400640420007505200027742000844b7800e7
:1041b400854b7800864b78001e027800740a9000c4
:1041c4008002eb00050a98001e027800740a900031
:1041d40004007800cb0707001e027800740a9000e0
:1041e40004007800240807001e0278008002eb0017
:1041f400750a98001e02780004129000e00f520025
:1042040029003200153a8000f40b20000483620078
:10421400640420007505200027742000844b780076
:10422400854b7800864b78001e027800140a9000b3
:104234009e027800950a9000150378009e0278008b
:10424400d55290008582fb00f7032000853add00fb
:1042540086827200050a7800153a80000404200062
:1042640005037200640420007505200027742000f3
:10427400844b7800854b7800864b78001e027800ca
:10428400041290008002eb00050a98001e027800d8
:104294000412900004007800730707001e027800df
:1042a4008002eb00051298000080fa00000006006e
:1042b4000400fa00000f7800214798001e027800dd
:1042c400441a9000e00f5200050032001e027800ec
:1042d400441a9000ae4090001e00780004000100d3
:1042e4000080fa00000006000200fa00000f7800c7
:1042f4001e027800541a9000e00f520006003200ab
:104304001e027800541a90001e0078000400010078
:10431400004278000100370000c2eb00044078003e
:104324000080fa00000006000200fa00000f780086
:104334001e027800140290009402780004402000c9
:1043440004826200e00f520008003a001e02780066
:10435400140290009e0278009502900015037800e4
:104364000540200086827200050a78000080fa0069
:10437400000006000400fa00000f780011079800fe
:10438400080037001e029000144278009e0290003c
:104394008502e80015079800844078001e00780024
:1043a400c3ff07001e02900014427800e04f520041
:1043b400f4ff3a001e007800dbff07000080fa00db
:1043c400000006000a00fa00200798003107980050
:1043d400420798004e029000e00f5200880032001d
:1043e4004e029000e10f520004003a003e02900099
:1043f4008042eb00054a780082003700b1c1b30067
:104404002e009000aaff070071c3b3002e00900095
:10441400a7ff07002e009000c3ff07003e02900094
:10442400140798004e029000040f78000300370030
:104434000000000001003700000000002e00900082
:10444400a9ff070000427800be029000844a780069
:104454003e02900014427800ed4f52000c003a00e6
:104464003e0290008042eb00054a7800a1c0b300f0
:104474002e0090008eff0700d1c0b3002e009000e4
:104484008bff07002e009000a7ff07005d00370098
:104494003e02900014427800fb4f520016003a008e
:1044a400b1c1b3002e00900081ff070081c3b300a7
:1044b4002e0090007eff0700b1c1b3002e009000d3
:1044c4007bff0700b1c5b3002e00900078ff070002
:1044d400b1c4b3002e00900075ff07002e009000b9
:1044e40091ff07001e029000340798004e029000ce
:1044f400040f7800410037003e0290001442780017
:10450400e84f5200050032003e02900094427800c9
:10451400f4c7b30084cf52001a003a00be029000e0
:104524001e029000848f52001000360081c0b30038
:104534002e0090005eff070001c2b3002e00900021
:104544005bff070081c0b3002e00900058ff0700f6
:104554002e00900074ff07003e0290000402e90060
:10456400340798001e0fe8000500370071c0b3003f
:104574002e0090004eff07002e0090006aff0700f7
:104584001e0037001e027800e10f520006003a00b8
:1045940071c0b3002e00900045ff07002e0090006c
:1045a40061ff0700150037003e02900014427800b6
:1045b400ff4f52009eff36003e0290009442780066
:1045c400e4c7b30084cf52009bff3e003e0290003c
:1045d40014427800844078002e00900034ff0700d5
:1045e4002e00900050ff07003e0290000402e800f5
:1045f400340798001e0fe90090ff37008fff370043
:10460400000000000080fa00000006000200fa002a
:10461400000f78001e0078000e0207001e027800ca
:10462400140a9000e00f5200050032001e027800c8
:10463400140a90001e007800040001001a003700dc
:104644001e027800240a9000e00f52001400320089
:104654001e027800040a9000e00f52000a003200a3
:104664001e027800240a90001e0078000400010055
:104674001e027800040a90008402e9001e027800f9
:10468400050a9800080037001e0078001a02070087
:104694001e0278008002eb00250a98000200370011
:1046a4001e007800140207000080fa0000000600d3
:1046b4003600f800809fbe00829fbe00849fbe002b
:1046c400869fbe003200f800100020009001880090
:1046d4000000fa00a0b72000ccff07000080fa0019
:1046e4003200f9004f03be004f02be004f01be006e
:1046f4004f00be003600f900004006003600f80006
:10470400809fbe00829fbe00849fbe00869fbe0025
:104714003200f80010002000900188000000fa0028
:1047240000b92000b9ff07000080fa003200f90048
:104734004f03be004f02be004f01be004f00be003b
:104744003600f900004006003600f800809fbe00e5
:10475400829fbe00849fbe00869fbe003200f80088
:1047640010002000900188000000fa0060ba2000c8
:10477400a6ff07000080fa003200f9004f03be00d4
:104784004f02be004f01be004f00be003600f900cc
:10479400004006003600f800809fbe00829fbe00e5
:1047a400849fbe00869fbe003200f80010002000e7
:1047b400900188000000fa00c0bb200093ff0700ae
:1047c4000080fa003200f9004f03be004f02be0021
:1047d4004f01be004f00be003600f9000040060045
:1047e4003600f800809fbe00829fbe00849fbe00fa
:1047f400869fbe003200f80010002000900188005f
:104804000000fa0020bd200080ff07000080fa00ad
:104814003200f9004f03be004f02be004f01be003c
:104824004f00be003600f900004006000000fa0008
:10483400b4002000841f78004700200036c0b30075
:104844004509200044082000031020002210200005
:1048540041102000a0b72000330007008f87e90033
:10486400c4002000841f78008003eb0076c0b300ee
:10487400450920004408200063102000c2102000d5
:104884000111200000b92000270007008f87e900ec
:10489400d4002000841f78001700200086c0b300d5
:1048a4004509200044082000a3102000e210200045
:1048b4002111200060ba20001b0007008f87e90047
:1048c400e4002000841f780027002000b6c0b30055
:1048d400650920006408200043112000a211200073
:1048e400e1112000c0bb20000f0007008f87e90002
:1048f400f4002000841f780037002000c6c0b300f5
:10490400650920006408200083112000c2112000e2
:104914000112200020bd2000030007008f87e9005a
:104924000080fa00000006001000fa00000f780072
:10493400110798002207980033079800440798004d
:1049440055079800464f9800770798001e02780094
:104954009e029000050a78001e027800ae029000c4
:10496400150298001e027800be02900025029800ed
:104974001e027800ce029000350298001e027800d4
:10498400de029000450298001e027800ce4a900094
:10499400254a98001e027800fe02900065029800e5
:1049a4001e027800ceba9700750298001e027800a5
:1049b4008002eb00050a98001e0278008002eb00da
:1049c400150a98001e0278008002eb00250a980060
:1049d4000080fa00000006000600fa00881f780034
:1049e400000f7800120798002307980018c0b3003e
:1049f400d27b230063f823001e009000ae009000d9
:104a040027f7070000027800e00f520001003c0085
:104a14000044eb00e04f540078003a0018c0b300a3
:104a2400d27b230063e823001e009000ae009000b8
:104a34001bf7070000027800e00f520001003c0061
:104a44000044eb00e04f5400150032001e007800d3
:104a5400e20007001e02780014027800050320001b
:104a6400050a78001e027800140490000240220017
:104a7400437724001e009000ae0090007af70700f0
:104a84000002be000400be0007f707000002be00db
:104a9400040278000402e900040c7800580037008e
:104aa40018c0b300d27b230063d023001e00900003
:104ab400ae009000faf6070000027800e00f520002
:104ac40001003c000044eb00e04f540015003200ac
:104ad4001e007800c10007001e027800140278004e
:104ae40005022000050a78001e02780014049000d4
:104af40002402200438724001e009000ae00900074
:104b040059f707000002be000400be00e6f60700e5
:104b14000002be00040278000402e900040c7800dc
:104b24003700370018c0b300d27b230063b82300da
:104b34001e009000ae009000d9f607000002780035
:104b4400e00f520001003c000044eb00e04f540031
:104b5400150032001e007800a00007001e02780035
:104b64001402780005012000050a78001e0278006e
:104b74001404900002402200439f24001e00900071
:104b8400ae00900038f707000002be000400be002b
:104b9400c5f607000002be00040278000402e90022
:104ba400040c7800160037001e0078008b00070004
:104bb4001e027800140278008002eb00050a7800d7
:104bc4001e027800140490000240220043b724001f
:104bd4001e009000ae00900023f707000002be0004
:104be4000400be00b0f607000002be000402780014
:104bf4000402e900040c7800010037000000000002
:104c04004f0478000080fa00000006000400fa0057
:104c1400889fbe00100798001e02900014027800be
:104c24009402780004032000048262004422de001f
:104c3400040f78001e027800c222dd0084c1200027
:104c4400048242001404be001e029000140290006c
:104c540014027800050020000400be00adf6070031
:104c64000002be000200200003f823000400be007e
:104c7400eaf507000002be000401be000800be0001
:104c8400f9f607000002be000400be004f04be0097
:104c94000080fa00000006000600fa00000f780009
:104ca40012079800230798001e019000ae0190009f
:104cb4000000200001f8230035f607000002be00c2
:104cc4000401be001e00780043ff07000080fa00c4
:104cd400000006000200fa00000f78001e007800b1
:104ce400caff07000002be000401be00000020004d
:104cf40001f8230026f607000002be000400be00ef
:104d04000080fa00000006000400fa00889fbe003c
:104d1400100798001e029000140278009402780094
:104d240004032000048262004422de00040f7800a1
:104d34001e027800c222dd0084c1200004824200e9
:104d44001404be001e0290001402900014027800a5
:104d5400050020000400be006ef607000002be003d
:104d64000200200003f823000400be00abf5070096
:104d74000002be000401be000800be00baf607002f
:104d84000002be000400be004f04be000080fa0012
:104d9400000006000200fa00000f78001e007800f0
:104da4002c0007001e027800240290008002eb0011
:104db400050a78001e027800140278009e0278002a
:104dc4009502780015037800050028008682720099
:104dd400050a78000080fa00000006000200fa00cc
:104de400000f78001e027800140278009e027800fa
:104df4009502780015037800f5ff2700850263000b
:104e0400050a78000080fa00000006000200fa009b
:104e1400000f78001e02780034029000940278009b
:104e24001e027800244a90000482fb001600200031
:104e34000432dd000482620004f0a7000402ea00e8
:104e44000402ea004f22de00040078000080fa0029
:104e5400000006000200fa00000f78001e0278002d
:104e6400340290009e027800b50290001503780089
:104e74009e027800a54a90008582fb00170020005e
:104e8400853add008582ea0085026300050a780020
:104e94000080fa00000006000200fa00000f78000b
:104ea4001e027800240290001402780004007800a6
:104eb4000080fa00000006000200fa00000f7800eb
:104ec4001e027800440290009e027800c502900001
:104ed400150378009e027800a54a90008582fb00a5
:104ee40017002000853add0086827200050a7800ea
:104ef4000080fa00000006000200fa00000f7800ab
:104f04001e027800440290009e027800c5029000c0
:104f1400150378009e027800a54a90008582fb0064
:104f240017002000853add008582ea0085026300cf
:104f3400050a78000080fa00000006000800fa0064
:104f4400000f780012079800230798003107980093
:104f54001e007800e8ff07001e019000ae019000db
:104f64001e0078009cfe07001e0278008002eb0001
:104f7400050a98001e027800be029000150a9800e7
:104f84001e0278008002eb00250a98001e007800bb
:104f9400c9ff07001e0078007eff07000080fa00aa
:104fa400000006000a00fa00000f780012079800bb
:104fb4002307980031079800440798001e007800e2
:104fc400cdff07001e019000ae0190001e00780086
:104fd40081fe07001e027800be029000050a9800b8
:104fe4001e0278008002eb00150a98001e02780069
:104ff400ce029000250a98001e007800aeff07003c
:105004001e00780063ff07000080fa00000006001d
:105014000200fa00000f78001e007800b6ff0700b7
:105024001e0078008bff07001e0078006bff07004e
:105034001e0278008002eb00050a98001e02780028
:105044008002eb00150a98001e0278008002eb0033
:10505400250a98000080fa00000006000800fa0003
:10506400300798003e029000040a9000040f780074
:105074000002eb00140798001e027800340290002e
:1050840014027800240798001e039000ae039000d9
:105094001e0278002402900014027800050020000b
:1050a4000401be000600be0023f607000002be0095
:1050b40004027800040078000080fa000000060072
:1050c4000a00fa0030079800410798003e02900059
:1050d400040a9000040f78004e0290006123b80087
:1050e4001e027800240290001402780005002000bb
:1050f40004b8b9000000780006a9b900820078005d
:105104000100400006037800040278000432b8006d
:1051140005004000800278001407980025079800d5
:105124001e02780034029000ae029000050a780056
:105134000080fa00000006000800fa00300798001a
:105144003e029000040a9000040f78000002eb0075
:10515400140798001e02780024029000940278003c
:105164001e02780064029000048252002407980012
:105174001e039000ae0390001e027800740290009b
:10518400050020000401be000600be00eaf5070089
:105194000002be0004027800040078000080fa00d7
:1051a400000006000a00fa00300798004107980042
:1051b4003e029000040a9000040f78004e02900012
:1051c4006123b8001e0278007402900005002000dc
:1051d40004b8b9000000780006a9b900820078007c
:1051e4000100400006037800040278000432b8008d
:1051f40005004000800278001407980025079800f5
:105204001e027800240290009e027800650390003c
:10521400ae02900085024300050a78000080fa007f
:10522400000006000000fa00260120008519200075
:1052340064192000431920002219200001192000bc
:1052440080ad20004200070036012000251a20000e
:10525400041a2000e3192000c2192000a11920001b
:10526400a0ae20003a00070046012000c51a200025
:10527400a41a2000831a2000621a2000411a200078
:10528400c0af20003200070056012000651b20003b
:10529400441b2000231b2000021b2000e11a2000d5
:1052a400e0b020002a00070066012000051c200051
:1052b400e41b2000c31b2000a21b2000811b200034
:1052c40000b220002200070076012000a51c200067
:1052d400841c2000631c2000421c2000211c200090
:1052e40020b320001a00070086012000451d20007d
:1052f400241d2000031d2000e21c2000c11c2000ee
:1053040040b420001200070096012000e51d200093
:10531400c41d2000a31d2000821d2000611d20004b
:1053240060b520000a00070036022000851e200018
:10533400641e2000431e2000221e2000011e2000a7
:1053440080b62000020007000080fa00000006007a
:105354000e00fa00000f7800110798002207980049
:10536400330798004407980055079800660798008b
:105374001e0278009e029000050a78001e02780042
:10538400ae029000150298001e027800be02900042
:10539400250298001e027800ce0290003502980083
:1053a4001e027800de029000450298001e0278007a
:1053b40005e82300650298001e02780005e8230032
:1053c400750298001e027800ee02900055029800c3
:1053d4001e0278008002eb00050a98000080fa00a3
:1053e400000006000200fa00000f78001e02780098
:1053f400140278008002eb00050a78001e0278008f
:10540400140290008002eb00050a78001e02780066
:10541400040a9000e00f520031003200153a800077
:10542400f40b20000483620064042000750520004e
:1054340027742000844b7800854b7800864b7800d5
:105444001e027800040a9000740290009e02780004
:10545400850a9000f5029000150378009e027800fa
:10546400850a9000a54a90008582fb00f70320007e
:10547400853add008582ea0085026300050a78002a
:10548400153a80000404200005037200640420001f
:105494007505200027742000844b7800854b780024
:1054a400864b78001e027800040a90008002eb000c
:1054b400050a98001e027800040a9000040078008f
:1054c400100307001e027800040a9000040078000c
:1054d4007e0307001e0278008002eb00050a980094
:1054e4000080fa00000006001000fa00881f78000f
:1054f4002007980031079800420798005407980045
:1055040065079800730798003e02900064029000bb
:10551400e10f4200a40032003e029000040a900011
:10552400e00f520033003a002e029000be029000b9
:10553400050a98003e029000ae029000050a980009
:10554400153a8000f40b20000483620064042000f8
:105554007505200027742000844b7800854b780063
:10556400864b78003e02900074029000be029000c8
:10557400f502900015037800be029000a54a900041
:105584008582fb00f7032000853add008582ea006e
:1055940085026300050a78003e02900074029000c0
:1055a400be029000f502900015037800ae02900050
:1055b400d5039000be029000a54a90008582fb00ae
:1055c400853add0086827200050a7800153a80006b
:1055d4000404200005037200640420007505200003
:1055e40027742000844b7800854b7800864b780024
:1055f400050037003e029000840a90002e029000bd
:10560400848f52006a003a004e029000e00f52006c
:105614001c0032002e02900014027800ce0290008a
:10562400e5029000ca2add006500b300050a78008f
:105634002e02900014029000f5012000050a780063
:105644005e019000ee0190004e00900092fd070074
:105654002e02900024029000ce0290009502900049
:1056640095027800050a78002e029000440290000a
:105674008002eb00050a78004e009000c5fd07008b
:105684002b0037002e0290001402780065c0210020
:10569400050a78002e02900014029000f501200003
:1056a400050a780018c0b3000240220043372400e2
:1056b4005e009000ee009000f7f30700000278000f
:1056c400e00f5200010035000044eb00e04f5400ad
:1056d400050032002e029000240290008082eb002c
:1056e400050a7800120037002e029000240490006e
:1056f4005e019000ee0190000040220041b72400ba
:10570400a3f307000002be000200200003f82300f8
:105714000400be0040f307000002be000400be0007
:10572400e1f307000002be0004027800040c7800d4
:105734007e0290006123b8002e02900024029000a3
:10574400140278000500200004b8b90000007800b5
:1057540006a9b90082007800010040000603780021
:10576400040278000432b80005004000800278008a
:10577400048fbe002e029000340290009e0290001e
:10578400050a78002e029000040a90002586220063
:10579400150a98002e029000040a90000583220046
:1057a400250a9800030037000000000001003700bc
:1057b400000000004f0478000080fa00000006009a
:1057c4001400fa0020079800310798004207980057
:1057d400540798006507980076079800070f98000b
:1057e400130f98003e02900064029000e10f420003
:1057f400910032003e029000040a9000e00f520033
:1058040033003a002e029000be029000050a980070
:105814003e029000ae029000050a9800153a8000fe
:10582400f40b20000483620064042000750520004a
:1058340027742000844b7800854b7800864b7800d1
:105844003e02900074029000be029000f5029000a7
:1058540015037800be029000a54a90008582fb00e3
:10586400f7032000853add008582ea0085026300a3
:10587400050a78003e02900074029000be02900077
:10588400f502900015037800ae029000d503900055
:10589400be029000a54a90008582fb00853add0097
:1058a40086827200050a7800153a800004042000fc
:1058b400050372006404200075052000277420008d
:1058c400844b7800854b7800864b780005003700c0
:1058d4003e029000840a90002e029000848f5200b1
:1058e40057003a004e029000e00f5200550032007b
:1058f4000240220043b724007e0090008e089000ee
:10590400d9f307000002be000400be0066f30700de
:105914000002be00840278002e0290006502980006
:105924007e0190008e0990003eb89700ceb8970093
:10593400b9f207000002be000240220043b724006f
:105944000400be00c8f307000002be000400be004d
:1059540055f307000002be00840278002e02900076
:10596400750298002e02900014027800f5c0210000
:10597400050a78002e02900014029000ce029000d6
:10598400750390000508200086827200050a7800dd
:105994002e0290003402900015002000050a7800c1
:1059a4001e0a90006123b8002e0290007402900039
:1059b4000500200004b8b9000000780006a9b90069
:1059c4008200780001004000060378000402780099
:1059d4000432b8000500400080027800048fbe0045
:1059e4002e02900024029000ae0290006503900005
:1059f4009e02900085024300050a78005e01900033
:105a0400ee0190004e009000f3fb07004e00900062
:105a1400e0fc07002e029000040a9000458d22004d
:105a2400150a98002e029000040a9000e5892200cd
:105a3400250a980003003700000000000100370029
:105a4400000000000080fa00000006000400fa00d4
:105a5400000f7800110798001e029000e00f52001a
:105a64000d0032001e027800140278009e027800b5
:105a740095027800150378009e027800e5429000b4
:105a84008582fb0017002000853add0086827200c3
:105a9400050a78000d0037001e0278001402780011
:105aa4009e02780095027800150378009e02780023
:105ab400e54290008582fb0017002000853add0056
:105ac4008582ea0085026300050a78000080fa00f6
:105ad400000006000200fa00000f78001e027800a1
:105ae40014027800940278001e0278006442900048
:105af4000482fb00160020000432dd0004826200f0
:105b040004f0a7000402ea000402ea004f22de00c7
:105b1400040078000080fa00000006000200fa0089
:105b2400000f78001e027800440290004419880097
:105b34002023a80000000000041980006102620014
:105b4400e00f5200fcff32000418800004007800cb
:105b54000080fa00000006000200fa00446d2000f4
:105b6400841f7800470120000043eb008082eb0093
:105b740054c0b3008001eb00822d2000a12d200031
:105b8400008020000c0107008f87e900846d20004d
:105b9400841f78009701200086c0b3008082eb0048
:105ba40044c0b3008001eb00822d2000a12d200011
:105bb40060812000000107008f87e900a46c2000a9
:105bc400841f7800a70020000043eb008082eb00d4
:105bd40044c0b3008001eb00822e2000a12e2000df
:105be400c0822000f40007008f87e900046d2000c4
:105bf400841f78001701200086c0b3008082eb0068
:105c040054c0b3008001eb00822e2000a12e20009e
:105c140020842000e80007008f87e900c46d20007d
:105c2400841f7800d701200086c0b300f50020004f
:105c3400f4c0b300234e2000822c2000a12c2000ad
:105c440080852000dc0007008f87e900046d2000b8
:105c5400841f7800070120000043eb008082eb00e2
:105c640034c0b3008001eb00822e2000a12e20005e
:105c7400e0862000d00007008f87e900246c200014
:105c8400841f7800270020000043eb008082eb0093
:105c940084c0b3008001eb00822d2000a12d2000e0
:105ca40040882000c40007008f87e900c46c2000ee
:105cb400841f7800c70020000043eb008082eb00c3
:105cc400b4c0b3008001eb00822d2000a12d200080
:105cd400a0892000b80007008f87e900446c2000e9
:105ce400841f7800470020000043eb008082eb0013
:105cf40094c0b3008001eb00822d2000a12d200070
:105d0400008b2000ac0007008f87e900246c200082
:105d1400841f78003700200086c0b3008082eb0027
:105d2400a4c0b3008001eb00822d2000a12d20002f
:105d3400608c2000a00007008f87e900a46c20007d
:105d4400841f7800b700200086c0b3008082eb0077
:105d54000042eb008001eb00822d2000a12d2000e9
:105d6400c08d2000940007008f87e900846d200017
:105d7400841f7800870120000043eb008082eb0041
:105d840014c0b3008001eb00822d2000a12d20005f
:105d9400208f2000880007008f87e900646d2000b1
:105da400841f78007701200086c0b3008082eb0056
:105db40024c0b3008001eb00822d2000a12d20001f
:105dc400809020007c0007008f87e900646d20002c
:105dd400841f7800670120000043eb008082eb0001
:105de40034c0b3008001eb00822d2000a12d2000df
:105df400e0912000700007008f87e900046c200008
:105e0400841f78008003eb000043eb008002eb006a
:105e14000042eb00234e2000822c2000a12c200005
:105e2400209a2000640007008f87e900046c20009a
:105e3400841f78001700200086c0b30015002000de
:105e440014c0b300234e2000822c2000a12c20007b
:105e5400c0982000580007008f87e900c46c200018
:105e6400841f7800d700200086c0b30025002000de
:105e740024c0b300234e2000822c2000a12c20003b
:105e8400609720004c0007008f87e9000002eb00b8
:105e9400841f78008083eb000043eb003500200072
:105ea40034c0b300234e2000822c2000a12c2000fb
:105eb40000962000400007008f87e900c46d200091
:105ec400841f7800c70120000043eb004500200038
:105ed40044c0b300234e2000822c2000a12c2000bb
:105ee400a0942000340007008f87e900246d20006f
:105ef400841f7800270120000043eb005500200098
:105f040054c0b300234e2000822c2000a12c20007a
:105f140040932000280007008f87e9000002eb006f
:105f2400040f7800080037001e0278007622b900ba
:105f34008402780004802000048242000400780077
:105f4400490007001e0fe8001e027800ed0f520002
:105f5400f5ff36000002eb00040f7800080037005c
:105f64001e0278007622b90084027800449320004f
:105f74000482420004007800970007001e0fe80026
:105f84001e027800e50f5200f5ff3600042e2000b3
:105f9400041988000002eb001419880004c42000ce
:105fa400241988000002eb004419880021e3a800aa
:105fb4000080fa00000006001000fa00000f7800cc
:105fc400110798002207980033079800044f98009f
:105fd40055079800464f9800770798001e027800ee
:105fe4009e029000050a78001e027800ae0290001e
:105ff400150298001e027800be0290002502980047
:106004001e0278008e4a9000654298001e027800b5
:10601400de029000450298001e027800ce4a9000ed
:10602400254a9800fe0290001e027800650298003e
:106034001e027800ceba9700750298001e027800fe
:106044008002eb00050a98001e0278008002eb0033
:10605400150a98001e0278008002eb00250a9800b9
:106064000080fa00000006000200fa00000f780029
:106074001e02780024029000e00f52000d0032004e
:106084001e027800240290009e027800a50290006f
:10609400150378009e027800e54290008582fb009b
:1060a40017002000853add008582ea00850263003e
:1060b400050a78001e027800140290009e027800ff
:1060c40095029000150378009e027800e542900046
:1060d4008582fb0017002000853add00868272006d
:1060e400050a78001e0278008002eb00150a980069
:1060f4001e027800c5d62200250a98000080fa0006
:10610400000006000200fa00000f78001e0278006a
:1061140024029000e00f52000d0032001e027800ad
:10612400240290009e027800a502900015037800d6
:106134009e027800e54290008582fb001700200053
:10614400853add008582ea0085026300050a78004d
:106154001e027800140278009e02780095027800ee
:10616400150378009e027800e54290008582fb00ca
:1061740017002000853add008582ea00850263006d
:10618400050a78001e027800140290009e0278002e
:1061940095029000150378009e027800e542900075
:1061a4008582fb0017002000853add008582ea0025
:1061b40085026300050a78001e02780085d2220059
:1061c400150a98001e027800c5d62200250a9800f8
:1061d4000080fa00000006000200fa00000f7800b8
:1061e4001e02780024029000e00f52001f003200cb
:1061f4001e027800140290009e027800950290001e
:10620400150378009e027800e54290008582fb0029
:1062140017002000853add0086827200050a7800a6
:106224001e027800240290009e027800a5029000cd
:10623400150378009e027800e54290008582fb00f9
:1062440017002000853add0086827200050a780076
:106254001e0278008002eb00150a98001e027800e6
:1062640005d92200250a980001003700000000002b
:106274000080fa00000006000200fa00000f780017
:106284001e027800940a900084d22200848f520067
:106294000c003a001e027800140278009e02780076
:1062a40095027800150378009e027800e54290007c
:1062b4008582fb0017002000853add00868272008b
:1062c400050a78000080fa00000006000200fa00c7
:1062d400000f78001e027800940a900084d22200f5
:1062e400848f52000d003a001e02780014027800d8
:1062f4009e02780095027800150378009e027800cb
:10630400e54290008582fb0017002000853add00fd
:106314008582ea0085026300050a78000080fa009d
:10632400000006000200fa00000f78001e02780048
:10633400940a900084d22200848f52000c003a0008
:106344001e027800140278009e02780095027800fc
:10635400150378009e027800e54290008582fb00d8
:1063640017002000853add0085026b00050a7800dd
:106374000080fa00000006000400fa00000f780014
:10638400110798001e027800140a9000e00f5200d2
:10639400050032001e027800140a90009e0090004e
:1063a4001e007800040001000080fa0000000600ce
:1063b4000200fa00000f78001e027800240a900000
:1063c400e00f5200060032001e027800240a9000fa
:1063d4001e0078000400010000027800010037006c
:1063e4000082eb00040078000080fa000000060040
:1063f4000000fa0074c0b300634e2000822d200018
:10640400a12d200080be2000200007000042eb00e8
:10641400a34e2000822e2000a12e200000bf2000c9
:106424001a00070014c0b300a34e2000822e2000df
:10643400a12e200080bf200014000700f4c0b30088
:10644400434e2000022d2000212d200000c02000fa
:10645400ae000700c4c0b300434e2000022d20004c
:10646400212d200080c02000a8000700c4c0b30074
:10647400234e2000822c2000a12c200000c12000eb
:10648400a20007000080fa00000006000a00fa00db
:10649400000f78001107980022079800330798002e
:1064a400044f98001e0278009e029000050a7800ae
:1064b4001e027800ae029000150298001e027800b9
:1064c400be029000250298001e0278008e4a9000b9
:1064d400654298001e027800240290009e02780013
:1064e400a5029000150378009e027800e542900012
:1064f4008582fb0017002000853add008582ea00d2
:1065040085026300050a78001e02780014027800f0
:106514009e02780095027800150378009e027800a8
:10652400e54290008582fb0017002000853add00db
:106534008582ea0085026300050a78001e0278005d
:10654400140290009e0278009502900015037800d2
:106554009e027800e54290008582fb00170020002f
:10656400853add008582ea0085026300050a780029
:106574000080fa00000006000200fa00000f780014
:106584001e027800140278009e02780095027800ba
:10659400150378009e027800e54290008582fb0096
:1065a40017002000853add0086827200050a780013
:1065b4000080fa00000006000200fa00000f7800d4
:1065c4001e027800140278009e027800950278007a
:1065d400150378009e027800e54290008582fb0056
:1065e40017002000853add008582ea0085026300f9
:1065f400050a78000080fa00000006000200fa0094
:10660400000f78001e027800140278009e027800c1
:1066140095027800150378009e027800e542900008
:106624008582fb0017002000853add0085026b009f
:10663400050a78000080fa00000006000400fa0051
:10664400000f7800110798001e029000e00f52001e
:106654000d0032001e027800140278009e027800b9
:1066640095027800150378009e027800e5429000b8
:106674008582fb0017002000853add0086827200c7
:10668400050a78000d0037001e0278001402780015
:106694009e02780095027800150378009e02780027
:1066a400e54290008582fb0017002000853add005a
:1066b4008582ea0085026300050a78000080fa00fa
:1066c400000006000200fa00000f78001e027800a5
:1066d40014027800940278001e027800644290004c
:1066e4000482fb00160020000432dd0004826200f4
:1066f40004f0a7000402ea000402ea004f22de00cc
:10670400040078000080fa00000006000a00fa0085
:10671400000f7800110798002207980033079800ab
:10672400044f98001e0278009e029000050a78002b
:106734001e027800ae029000150298001e02780036
:10674400be029000250298001e0278008e4a900036
:10675400654298001e027800240290009e02780090
:10676400a5029000150378009e027800e54290008f
:106774008582fb0017002000853add008582ea004f
:1067840085026300050a78001e0278001402900056
:106794009e02780095029000150378009e0278000e
:1067a400e54290008582fb0017002000853add0059
:1067b40086827200050a78000080fa000000060054
:1067c4000200fa00000f78001e027800140278001c
:1067d400940278001e027800644290000482fb0058
:1067e400160020000432dd000482620004f0a700d9
:1067f4000402ea000402ea004f22de0004007800ea
:106804000080fa00000006000600fa0004102000d0
:10681400243a880005f80700f5fe0700cefc0700bf
:1068240080fa07005ef20700209a20006afe070043
:10683400c082200033fe0700c08220008efe0700c5
:10684400208420002ffe0700208420009ffe0700e4
:10685400808520002bfe07008085200086fe07002f
:10686400e086200027fe0700e086200097fe070050
:10687400a089200023fe0700a08920007efe0700d7
:106884000002eb00040f7800010037001e0fe8003f
:10689400f4a52e009e027800848f5200fbff360080
:1068a40080be200034ff07000002eb0014079800ac
:1068b400030037001e0290000402e8001407980049
:1068c4009e029000f4a52e00848f5200f9ff36003a
:1068d40000bf200028ff07000002eb0024079800f7
:1068e400030037002e0290000402e80024079800f9
:1068f400ae029000f4a52e00848f5200f9ff3600fa
:1069040040882000fffd0700408820005afe070051
:0c69140080bf200018ff0700ffff3700c5
:020000040000fa
:106920007a0b00006e00000080000000180c0000d0
:106930001000000082000000bd37860033bd370024
:106940000635bd0037863600bd37860037000000ab
:10695000e80b00003000000080000000000800008c
:10696000b801000080000000d80a0000a20000006a
:1069700080000000b8090000200100008000000035
:046980000000000013
:020000040000fa
:086984000040da000000fe00f3
:00000001FF
