:020000040000fa
:080000001011040000000000d3
:020000040000fa
:102220000fe820000eff27000e01880000000000cc
:10223000000020000000e000020032000001200049
:10224000200288000c00070060bc24000100200070
:102250000f000700000020000000e0000200320034
:1022600000000200000000006049020000000000c1
:102270000040da000000fe00600920000000e000dd
:1022800002003200002020009001880000000600bb
:10229000a1028800800078000000eb001a003700df
:1022a000e280400054a0b4009101ba00e2804000f6
:1022b00054a0b4009102ba00e280400054a0b400df
:1022c0000002eb00472bde00f507b200a6018800f4
:1022d000602ce10008003a000049eb000201e80030
:1022e000020039003420ec0002f0a0008301e90074
:1022f000f9ff3e00040037006128e10001003200d0
:102300000082eb00040007001101ba000200e000a7
:10231000e3ff3a000000060004d0a300e20f4900ea
:102320001c003900810278003549ba000201e8003a
:10233000020039003420ec0002f0a0008301e90023
:102340000f0032002549ba000201e80002003900fe
:102350003420ec0002f0a0008301e9000800320004
:102360000400e0000600320015c9ba000201e800ce
:10237000020039003420ec0002f0a0008301e900e3
:102380008180e80054a0b4000300e000e2ff3a00be
:10239000000006009102ba00055978008301e900a7
:1023a000f7ff3200c82ade00055978008301e900f2
:1023b000f3ff32000400e000f1ff320011d9ba004f
:1023c000eeff37009048040000000000a048040021
:1023d00000000000b442040000000000704204004d
:1023e00000000000d842040000000000aa3d0400e4
:1023f00000000000783d0400000000001c3e0400c6
:1024000000000000e63d040000000000cc200400b5
:10241000000000001021040000000000f020040073
:1024200000000000fe2104000000000003f0a200f4
:10243000889fbe008a9fbe008c1f7800f7000700af
:10244000fe0033006450e1004f0032006420e100e0
:102450005200320003826c0007003b000905d000e7
:102460000306d000820f54000c065d000200390004
:102470000200320089017800030678008582550049
:1024800004003d000003fd008103fd008502ea0019
:102490008b854200840f720002003b006000100038
:1024a000e08018006011b8000005eb007a28e10018
:1024b0000a00390006007800c75ddd00f707b200aa
:1024c000878075002d003700828171000a01780035
:1024d000610560008180d1000080d3008502e900a1
:1024e000f9ff3b00060440008784480002003b00df
:1024f00060041400e0841c000988a3000700320077
:102500008a81710082817100610164008904d100b7
:102510000884d3008b05e800170037000978a30072
:1025200013003a000b00e000130034008b05e900b3
:102530000804440089844c000a4474000978a3000c
:102540000d003a000b00e000070034008b05e900a5
:102550000804440089844c0001003a000b0020006c
:102560000978a300f7ff32000001eb0002003700fa
:10257000828171000a0178006d0007000cf0a7004d
:1025800001f0a000b60037006420e10002003a002c
:10259000838f6c00b60033000801be000200be004d
:1025a000af003700889fbe008a9fbe008c1f780056
:1025b0009a000700a100330003866c006450e1001c
:1025c0002e0032006420e100330032006150e1004f
:1025d0002f0032006120e100310032008585550076
:1025e000eb07b000090020000804200005003700b8
:1025f0000804440089844c000a00310006034300ab
:1026000087834b000001530081815b00f8ff33009a
:102610000203be000800a0000804440089844c00a6
:10262000f6ff3900c639dd00830173000100320076
:10263000130020008904d1000884d3000998a30066
:10264000050032000800a7000300a0008904d100a3
:102650000884d3008b05e8008904d1000884d300e6
:102660000001eb000281d2003100070001f0a1005f
:102670000cf0a70001f0a000790037006420e10011
:102680007b0032000801be000200be00f7ff3700e9
:102690006120e100760032006000b800f3ff3700ef
:1026a0000000200001f82700f0ff37001400200090
:1026b000b6003700f4ff2f00b40037000001be0061
:1026c000410007000470a70003f0a10003f8a30075
:1026d00013003a006509b10010003200090035000e
:1026e0006928e10002003500010028000000050013
:1026f00000004000818048008502e900fcff3a00ac
:1027000000000600f88f4200050035008100d1006e
:102710000080d3008502e800fcff3a0000000600bc
:102720008000eb00000005006011b800b200370027
:1027300081002000618055000b003d000b0020004f
:1027400061fe2f000100e1001d0034008281710054
:10275000610164008904d1000884d3000000e8000e
:10276000faff3a007100200061006400030070006d
:10277000020060000900320061044400e0844c0063
:102780000988a500050032008b05e8006808e10013
:1027900002003a008904d1000884d300f20f20001f
:1027a0000258e10005003d00c75ddd00f907b200f9
:1027b0008980750008007800000006000bf82700eb
:1027c0008b00780000000500c70ade00f107b200a8
:1027d000f50fb20008003200e1cf420002003200e3
:1027e0000170a00024000500810f7000010032007c
:1027f0000408050044000500810f700002003a0043
:10280000140005008502e9000000400081c0480076
:10281000fcff3b000170a000240005000004be0086
:10282000e9ff07000003be000405be000200be0071
:10283000e5ff0700844f7500000006000200be009f
:102840006450e100050036006420e100020036001b
:102850000968a30001003a000800be000160a00062
:102860004f0678004f05be004f04be000000060072
:10287000f0ff2f00f1ff2700f9ff3700889fbe000f
:102880008a9fbe008c1f7800e4ff0700ebff330037
:1028900003866c006450e100240032006420e100f3
:1028a000270032006150e100220032006120e10087
:1028b000210032008b854200eb07b1000134b800e3
:1028c000003ab8000804420089844a00013ab8007e
:1028d0000030b8008880400009014a00040033003d
:1028e0000000400081804800020149008b05e9009a
:1028f000c909dd00830170000100320013002000cf
:10290000c814de004814dd004709de001200b200e2
:10291000c808de000884700085ff070001f0a100f0
:102920000cf0a70001f0a000cdff37006120e1000e
:10293000cfff32000801be000200be00f7ff3700e3
:102940006150e100fcff3a00c9ff37006022b80087
:10295000060220000000d0008180d2000482d20054
:102960008582d2000000a0000202520083825a0039
:10297000030031000202420083824a000000a100ed
:102980000603e900f3ff3a0000000600889fbe003e
:102990008a9fbe00841f7800a0ff07004f007800c8
:1029a00011003300f0ff2f00838f6c0006003b0006
:1029b000040565000a00a7000800370009f0a6001a
:1029c0001000200008003700820f5400838f5c0045
:1029d000030039001000200001003e00000020002c
:1029e00009f0a7000000ea004f05be004f04be003a
:1029f0000000e00000000600889fbe008a9fbe0025
:102a0000008270000402710004827100260032000e
:102a10000004be000200be006011b8006b09200077
:102a2000950220000182cf000a0039000541b10063
:102a30000082cf00070039000541b1000982cf00b4
:102a4000040039000541b1000882cf0001003900bf
:102a50000541b10005425200120032000a003b005d
:102a600082817100610164008100d1000080d30087
:102a70008984d3000884d3008b05e8000442e80071
:102a8000f7ff3a00070037000804440089844c002f
:102a900000004800818048008b05e9000442e900fd
:102aa000f9ff3a0022ff07004f05be004f04be00a9
:102ab0000000060020dc20000000fa0068815700ba
:102ac000cfb89700020007000080fa00000006005f
:102ad000ef03b000889fbe008a9fbe008c9fbe009f
:102ae000800678008e1f78000007eb00d1af9f00b2
:102af000a2b79f0066033700dfa8970054c2b30057
:102b00008100e800d1af9f00844f500006003a00da
:102b1000010278000006eb0001c3b30000c2b3005d
:102b2000b7c2b3000e0037003d0290000404b200ab
:102b3000040032001d027800004a7800840ee8008c
:102b4000050037000000fb008d0078005c030700e3
:102b5000e10f40004e0332000e07e8004c0337003f
:102b600084027800d2c2b30034437800824f53000d
:102b70000900320005003c00804f5300080032007d
:102b8000874f53000c003a0007003700814f530075
:102b900009003a00060037000c30a000f0ff3700b3
:102ba0000c00a000eeff37000c10a000ecff370077
:102bb0000c20a000eaff370062026600010032002c
:102bc0000c00a10068026600010032000c20a10088
:102bd0000602fb000403b100e90f52000c003e00a6
:102be000050378000002eb00b603fb006a22b9007f
:102bf0000703b10086027800048243009603fb00bd
:102c00000703b100e98f5300f7ff360008003700d3
:102c10000002eb00a7c2b300874f530004003a0044
:102c2000afb197008502e80043027800a3b79f0088
:102c30000003eb0096b79f00e6c2b300954f130068
:102c40000c003a000ce0a00064435300d54f130081
:102c500003003200050378000000eb000900370094
:102c6000afb397008502e80047047800a7b79f003c
:102c700098b79f0005037800090037006a00b90083
:102c80000080430086027800b603fb000703b10012
:102c9000e98f5300f9ff360090b79f00f5ff37002a
:102ca000b6427800cac6b300d6af9f008acf5200a2
:102cb000250032000f003c0036c6b30086cf52001c
:102cc0009e00320004003c00e0cf5200f5023200ca
:102cd0006b4353000f00370046c6b30086cf520047
:102ce000170032006543430086cf5200b2003a001d
:102cf0001300370036c7b30086cf52001f003200e2
:102d000007003c006443530086cf52001400320099
:102d10000643e80086cf5200a7003a0013003700b0
:102d200056c7b30086cf5200aa0032006343430067
:102d300086cf5200a0003a00e5779f000d003700d3
:102d4000e5779f00a5003700f0036600050120002d
:102d500001003200050028000c867200d0ff370009
:102d6000e5779f000c60a0009c003700e5779f008e
:102d70000c50a0000c70a00098003700afb5970071
:102d8000e5779f00cb027800abb79f00b5b79f00f7
:102d9000e08f520002003a00e1da2000b1b79f0054
:102da0003fb397008002eb00010037008502e80086
:102db000e6c37a00e0cf5300fcff3a00c5b79f009e
:102dc0001fb19700e00f510005003200cfb197000e
:102dd000830f51000200310082027800c5b79f00c6
:102de000cfb297000004eb00850f520001003600bf
:102df000050452006806660009c2b3000f003200e5
:102e0000290037003d0290000404b20004003200a3
:102e10001d027800094a7800840ee800050037009a
:102e20008d00780000022000a5020700e10f40009d
:102e3000010032000e07e8000804e900e00f54002a
:102e4000f0ff3a000084eb0017003700bd0290004d
:102e50000504b20009003200880278009d03780062
:102e600035437800864b780005047800870ee8002b
:102e7000e04f53000a003a00110037008802780042
:102e80008d0078003500fb0084bf9f0005047800aa
:102e90008b0207000fba9700e10f400008003200d4
:102ea0000e07e800060037000c02780008067800dc
:102eb0003fb49700cfb497005fb59700efb5970088
:102ec000890278008504e900e08f5200dfff3a00b4
:102ed000b8b79f00c9b79f00dab79f00ebb79f0054
:102ee0000c04780009c2b30004067800e00f560015
:102ef0000f003a00660237003d0290000404b20061
:102f0000040032001d027800094a7800840ee800af
:102f1000050037008d0078000002200068020700dd
:102f2000e10f4000010032000e07e8000804e9004c
:102f3000e00f5400f0ff3a0055023700afb09700a1
:102f40007003660041047800a1b79f00cfc4de0083
:102f5000090578008a0578000800be000a01be0055
:102f60004800de00c80add0000807200e0779f00a4
:102f7000e00f530009003200e04f5000070032001c
:102f8000e14f40000500320026002000f0779f004e
:102f9000887f9f00c6b79f000300370017002000fe
:102fa000c7b79f00f8779f0078fb2f000884470081
:102fb000b8b79f0082ff370069fb2f001a0020007e
:102fc00089844700e5779f00b9b79f00cab79f0083
:102fd0007bff3700e5779f000c0cb3008c02780074
:102fe000050cb2003b003a00e00f560005003d0022
:102ff000afb297004501be004500be00a5b79f00d7
:103000000f003700f0026600120032002fb4970064
:103010004803be00f69f9f0087a79f00a8b79f00a8
:1030200098029000cfaade0095a79f00a5a79f0059
:103030007f9897008fa097001fa19700afa19700de
:10304000b0b79f00c1b79f00d2b79f00e3b79f0002
:103050000b003700afb09700c1027800050478007c
:10306000cfc4de00090578008a057800a1b79f006b
:10307000b8b79f00c9b79f00dab79f00ebb79f00b2
:103080003fb09700cfb097005fb19700efb19700c6
:10309000e00f5000e08f5800e00f5900e08f59001a
:1030a00032003d006000b8006011b8003fb49700e6
:1030b000cfb497005fb59700efb597003c00b30021
:1030c00008045000898458000a0559008b8559006e
:1030d00022003700e00f560005003d00afb2970018
:1030e0004501be004500be00a5b79f000f00370098
:1030f000f0026600120032002fb497008004eb004b
:103100004803be000005eb0096af9f00a7af9f00ed
:10311000b9af9f00caaf9f001fa89700afa8970044
:103120003fa99700cfa99700a8b79f00b0b79f000d
:10313000c1b79f00d2b79f00e3b79f000b003700d5
:10314000afb09700c1027800a1b79f0005047800d6
:10315000090020000a0020000b002000b8b79f00e3
:10316000c9b79f00dab79f00ebb79f009fb49700e5
:10317000e08f54000d003a001a0020003fb0970085
:10318000cfb097005fb19700efb197009ab79f005b
:10319000e00f5000e08f5800e00f5900e08f590019
:1031a000020032008000eb0091b79f000c01780014
:1031b00005042000020cb20082b79f00850f510069
:1031c0003400320003003c00e00f510008003200e0
:1031d00048003700050820008fb19700858f510007
:1031e00014003200050c2000858f510041003a0088
:1031f00046cf200015c0b3003600be003601be0029
:103200003fb49700cfb497005fb59700efb5970034
:103210000040e10001c8e10002d0e10003d8e10074
:10322000330039008542e800f4cf5200f2ff3a0043
:103230002f00370015c0b30000012000010020005e
:103240006011b8003fb49700cfb497005fb5970006
:10325000efb597000040e10001c8e10002d0e100b5
:1032600003d8e10022003900490020000000d0000e
:103270008180d2000281d2008381d2008904e900da
:10328000faff3a008542e800f0cf5200edff3a0025
:103290001700370015c0b300800020000100200097
:1032a0006011b8003fb49700cfb497005fb59700a6
:1032b000efb597000040e10001c8e10002d0e10055
:1032c00003d8e1000a003900390020000000d000d6
:1032d0008180d2000281d2008381d2008904e9007a
:1032e000faff3a008542e800f5cf5200edff3a00c0
:1032f000e5779f006f7597009fb597008a02fb00e6
:103300008b8f520002003d00eb779f0004003700d6
:103310001fb09700850f500001003d0095b79f003a
:10332000e00f520003003200e302660001003200a9
:103330000402e90005002400850266000600320050
:103340009fb09700810f520002003400010252002a
:10335000010037000002eb006f7197008001eb0065
:103360008202fb00f3af9f00850f52000200340081
:1033700085025200f5af9f00640266003b003200f8
:10338000e202660061026600e08f52001100320026
:10339000bd0290000504b200080032009d027800d2
:1033a000b6c2b300e00f52000100320006c3e800cd
:1033b000864a7800850ee80015003700b00220002c
:1033c000e00f5200010032000080e8008d0078001c
:1033d0000c003700e00f52000e0032003d0290005a
:1033e0000404b200050032001d02780005c2b300db
:1033f000054a7800840ee800050037008d0078004b
:10340000000220002e010700e10f40000100320001
:103410000e07e8007faa9700e00f52004f0032002d
:1034200008c3b300840478003d0290000404b20095
:10343000040032001d027800084a7800840ee8007b
:10344000050037008d007800000320001c010700f4
:10345000e10f4000010032000e07e8008904e90096
:10346000f1ff3a00f9af9f003c003700ffaa970038
:10347000e08f5200140032006802660012003a0029
:1034800008c2b300850478003d0290000404b20035
:10349000040032001d027800084a7800840ee8001b
:1034a000050037008d0078000002200004010700ad
:1034b000e10f4000010032000e07e8008904e90036
:1034c000f1ff3a00f9af9f00e20266006102660078
:1034d000e08f520011003200bd0290000504b200de
:1034e000080032009d027800b6c2b300e00f52001f
:1034f0000100320006c3e800864a7800850ee80025
:1035000015003700b0022000e00f52000100320029
:103510000080e8008d0078000c003700e00f5200ba
:103520000e0032003d0290000404b200050032009b
:103530001d02780005c2b300054a7800840ee80039
:10354000050037008d00780000022000dc00070035
:10355000e10f4000010032000e07e8001fb39700a2
:10356000c5ce20000602e900f0046600c223dd009b
:103570000c057800c7a79f000a02b2006323b900b8
:10358000e99f9f00060478004322dd00b8a79f0052
:1035900085024200da9f9f00e5af9f00a30037003d
:1035a0009fb597000fb097008b05e900010420003c
:1035b0009bb79f00810f50007300320003003c0056
:1035c000e00f5000080032007e00370004082000a1
:1035d0000fb19700840f510056003200040c2000f8
:1035e000840f510077003a00e00f56001f003d00a5
:1035f000efa997003304be002305be003fb097003b
:10360000cfb097005fb19700efb197000802be00fe
:103610000a03be00e10107000802be000a03be0063
:10362000e0779f000000fb00cf80de000101780002
:1036300082017800420207003fb29700cfb29700a4
:103640005fb39700efb397000002520081825a00e7
:1036500002035b0083835b00b4b79f00c5b79f0084
:10366000d6b79f00e7b79f002e003700ef9a97006c
:10367000e08f5200220032006fab97003fb29700fc
:10368000cfb297003604be002605be000400be007f
:103690000801be0084bf9f00f5b79f000005eb0046
:1036a000aafc07000801be00e0779f000000fb00b5
:1036b000cf80de00080107000fba9700ffb2970025
:1036c0008aaf9f000004520081845a00d8a79f004f
:1036d000e9a79f008004eb00f9a79f005fa0970077
:1036e000efa097007fa197008fa99700b0b79f0028
:1036f000c1b79f00d2b79f00e3b79f000900370012
:10370000efa897003fb1970011027800110009005f
:103710000481d800a4002000110009000480d80012
:10372000e1779f00ef7197000343b000e3779f00bc
:1037300024003700d4d92000df9a9700e08f520090
:1037400001003200c4d820003fb09700cfb09700ee
:103750005fb19700efb197004fa397000603e90010
:10376000050033008301d1000281d3008180d300a2
:103770000080d300f9ff37006f00600064407800dc
:10378000e0779f000f0037003fb29700cfb297005d
:103790005fb39700efb397003fa497000804e900d8
:1037a000050033008703d1000683d3008582d30050
:1037b0000482d300f9ff3700674262000443b0007f
:1037c000e4779f003d0290000404b200070032003d
:1037d0009d0278006f729700844a7800850ee80099
:1037e000e04f520007003a0007003700ef749700df
:1037f0008d0078000900fb0031000700e10f400058
:10380000010032000e07e8004fa59700bfa5970002
:103810006fa8970064055500e385550068005000c7
:10382000caa79f00bba79f00e0af9f009fb0970073
:10383000e08f50005aff3a0068066600140032001c
:103840007fa99700e00f51001100340008c2b300b7
:10385000820478003d0290000404b20004003200ab
:103860001d027800084a7800840ee8000500370041
:103870008d0078000002200011000700e10f4000d9
:10388000010032000e07e8008904e900f1ff3a0068
:10389000dfa9970013407800e0779f00e04f5000c9
:1038a00095fc3a000e0078004f0778004f06be00e6
:1038b0004f05be004f04be00ef03b100000006003c
:1038c000889fbe00010478008084eb0038029000dd
:1038d000e20262003b00320004037800980290008c
:1038e0000620b20002003a00e08f520035003a0094
:1038f0000490a0008004780034049800f90fb2000e
:10390000e08f520002003a00a8029000050c7800f7
:10391000ea8f540005003a000408b20003003a00a0
:1039200088007800d0002000e5ff07001802900012
:10393000d8029000850f52000b0032000402e8000c
:1039400015c0b3001404980018027800094a7800e2
:10395000040ce800c4dd2000054a7800ea8f54001a
:1039600018003a0005003700094078008800780008
:10397000170007008004780012003700380290001a
:103980000410b2000f00320018019000a80090004f
:10399000480090008b03070018029000840f50002d
:1039a00004003200380290000403b300340498008d
:1039b0008084eb000002eb001404980028029000c1
:1039c000040c7800090078004f04be0000000600d7
:1039d0000200fa00889fbe0001047800a0ff9f004b
:1039e00038029000840278000504b2000200320020
:1039f0000000fb0035003700e202620005003a00db
:103a00000403b30015049800340498000080eb0010
:103a10002e003700d8049000e08f540006003a00d2
:103a200012002000e6805700480090006503070060
:103a30001904980023003700a8029000e08f52007c
:103a400008003a0005de20000430a000250498009c
:103a5000050c7800340498002500200055049800d7
:103a60001504980018019000a800900048009000ec
:103a700054030700280290008082eb001504980090
:103a8000affa9700054a7800040ce8002ffa970077
:103a9000ea4f52000b003a00380290000410b200c6
:103aa0000800320018019000a80090004800900023
:103ab000440307000002eb00a802900014049800e1
:103ac000050c78002ffa97000400fb004f04be009d
:103ad0000080fa0000000600020ab900001bb900cd
:103ae0000200b8008100420081004300000006008f
:103af000889fbe008a9fbe003004be002005be0025
:103b00000404440085844c0006054d0087854d0063
:103b10000898be000a90be000440e10005c8e1001c
:103b200006d0e10007d8e100020031006800400043
:103b30001008e8004f05be004f04be00000006005c
:103b40001000fa00889fbe008a9fbe00110020006e
:103b50000605be000404be003002be002003be0005
:103b6000c4b79f00d5b79f00e6b79f00f7b79f0087
:103b70000802520089825a000a035b008b835b00b3
:103b800084bf9f0095bf9f00a6bf9f00b7bf9f0047
:103b90000498be000698be004fb29700dfb29700af
:103ba0006fb39700ffb397000820e10009a8e10078
:103bb0000ab0e1000bb8e100010039008000eb0021
:103bc0004f05be00108810004f04be000080fa00b0
:103bd000000006001400fa00889fbe008a9fbe0005
:103be0008c9fbe000006eb003e000700ccb79f0094
:103bf000bcb79f00acb79f009cb79f008cb79f00dd
:103c00000605be000404be000d0420004fb397005b
:103c1000bfb29700860343002fb29700e00f530016
:103c200004003d003d0007000f004000b0ff07000a
:103c300003003700390007000f004000c0ff0700f5
:103c4000cfb2970095bf9f00e08f5200090035006a
:103c50002b00070014002000050020006033b8008e
:103c60000000720081807200020173008381730082
:103c70001c0007000c06e8008d0f5600e3ff3a0019
:103c80001fba9700e00f520005003d000802be0079
:103c90000a03be0000fe2f000f00400094ff070043
:103ca0004faa9700e00f520008003a000fb49700a7
:103cb0009fb497002fb59700bfb59700d8b79f0066
:103cc000e9b79f00fab79f008bbf9f000c00070069
:103cd0004f06be004f05be004f04be000080fa0034
:103ce00000000600010007000000060090b79f00da
:103cf000a1b79f00b2b79f00c3b79f0000000600a6
:103d000001000700000006001fb09700afb0970049
:103d10003fb19700cfb19700000006004f2bde00a7
:103d2000f9ff070086837300858242004f23de007f
:103d3000a7b79f00868272000402420095b79f00d9
:103d4000ffaa97004f2bde00858242000602720018
:103d500084b79f006faa97004f23de000402420041
:103d600086827200f5af9f004f18de0000027200dd
:103d7000e5ff0700e4af9f0000004000818048009d
:103d800002014900838149000802be000a03be0007
:103d9000d6ff070000fe2f0000000600881f7800f5
:103da00018002000881f78008aff07008f87e9002d
:103db0004f04780000000600801feb0085ff07001d
:103dc0008f87e90000000600889fbe008a9fbe0022
:103dd000e00f5000e08f5800e00f5900e08f5900cd
:103de0000c003d006044b8006055b800000054006d
:103df00081805c0002015d0083815d00180020006d
:103e00001500070008003d00180007000004eb0043
:103e1000050037000004eb000f00070002003d0022
:103e20001200070018002000dcff0700e00f54001c
:103e3000060032006022b8006033b8000000520073
:103e400081805a0002015b0083815b004f05be0048
:103e50004f04be0000000600e00f5200e08f5a0041
:103e6000e00f5b00e08f5b00000006006044b800dc
:103e70006055b8000402540085825c0006035d00b2
:103e800087835d0000000600889fbe008a9fbe00f9
:103e90008c1f7800e00f5000e08f5800e00f5900b1
:103ea000e08f59000d003d006044b8006055b80037
:103eb0001c0020000000540081805c0002015d00b5
:103ec00083815d000820e10009a8e1000ab0e1005b
:103ed0000bb8e1000d003d00080037000006eb00c4
:103ee000e00f5200e08f5a00e00f5b00e08f5b00b4
:103ef00006003d006044b8006055b800040254005c
:103f000085825c0006035d0087835d00aaff0700d1
:103f1000e00f5600060032006022b8006033b8009f
:103f20000000520081805a0002015b0083815b0027
:103f30004f0678004f05be004f04be00000006008b
:103f4000889fbe008a9fbe008c1f78000006eb0091
:103f5000e00f5000e08f5800e00f5900e08f59004b
:103f600007003d006044b8006055b8001c00200008
:103f70000000540081805c0002015d0083815d00cf
:103f8000e00f5200e08f5a00e00f5b00e08f5b0013
:103f900007003d006044b8006055b8000c00a20066
:103fa0000402540085825c0006035d0087835d0087
:103fb0000c000700e00f5600060032006022b80037
:103fc0006033b8000000520081805a0002015b009b
:103fd00083815b004f0678004f05be004f04be0092
:103fe00000000600889fbe008a9fbe008c9fbe0016
:103ff0000404b8000506b8008904460060854e0038
:104000000606b8000a054600e0854e000706b8001f
:104010008b054600040eb800890446000a854e0050
:10402000e0854d00050eb8000a0546008b854e0060
:10403000060eb8008b0546000416b8000a054600b7
:104040008b854e000516b8008b054600041eb8008f
:104050008b0546000800be000a01be004f06be00e8
:0c4060004f05be004f04be00000006002b
:020000040000fa
:020000040002f8
:04aff400031c00003a
:020000040000fa
:020000040002f8
:04aff8000f890000bd
:020000040000fa
:020000040002f8
:04affc007f3e000094
:020000040000fa
:102000001011040000000000e04c0400000000007b
:10201000e04c040000000000e04c04000000000060
:10202000e04c040000000000e04c04000000000050
:10203000e04c040000000000e04c04000000000040
:10204000e04c040000000000a23804000000000082
:10205000e04c040000000000e04c04000000000020
:10206000c838040000000000ee3804000000000042
:10207000e04c040000000000e04c04000000000000
:10208000d822040000000000b2220400000000007a
:10209000e04c040000000000e04c040000000000e0
:1020a000e04c040000000000e04c040000000000d0
:1020b000e04c040000000000e04c040000000000c0
:1020c000e04c040000000000e04c040000000000b0
:1020d000e04c040000000000e04c040000000000a0
:1020e00014390400000000003a3904000000000028
:1020f000e04c040000000000242304000000000065
:10210000fe22040000000000e04c0400000000007b
:10211000e04c040000000000e04c0400000000005f
:10212000e04c040000000000e04c0400000000004f
:10213000e04c040000000000e04c0400000000003f
:10214000e04c040000000000e04c0400000000002f
:10215000e04c040000000000e04c0400000000001f
:10216000e04c040000000000e04c0400000000000f
:10217000e04c040000000000e04c040000000000ff
:10218000e04c040000000000e04c040000000000ef
:10219000e04c040000000000e04c040000000000df
:1021a000e04c040000000000e04c040000000000cf
:1021b000e04c040000000000702304000000000058
:1021c0004a23040000000000e04c0400000000006e
:1021d000e04c040000000000e04c0400000000009f
:1021e000e04c040000000000bc23040000000000dc
:1021f0009623040000000000e04c040000000000f2
:10220000e04c040000000000e04c0400000000006e
:10221000e04c040000000000e04c0400000000005e
:020000040000fa
:1000080004100000081000000c1000001010000080
:10001800141000000c1100000c1100000c1100005d
:10002800181000001c100000201000002410000010
:100038000c110000281000002c10000030100000e7
:1000480034100000381000003c1000004010000080
:1000580044100000481000000c1100000c110000b2
:100068004c10000050100000541000005810000000
:100078005c1000000c11000060100000641000000b
:100088000c110000681000006c10000070100000d7
:1000980074100000781000007c1000008010000030
:1000a80084100000881000000c1100000c110000e2
:1000b8000c1100008c10000090100000941000003b
:1000c800981000009c100000a0100000a410000070
:1000d800a8100000ac1000000c1100000c1100006a
:1000e8000c110000b0100000b41000000c1100004a
:1000f8000c110000b8100000bc1000000c1100002a
:100108000c1100000c1100000c1100000c11000073
:100118000c1100000c110000c01000000c110000b0
:100128000c110000c4100000c8100000cc10000022
:100138000c1100000c1100000c1100000c11000043
:10014800d01000000c1100000c1100000c11000070
:100158000c110000d41000000c1100000c1100005c
:100168000c110000d8100000dc100000e0100000a6
:10017800e4100000e8100000ec100000f01000008f
:10018800f4100000f8100000fc100000001100003e
:1001980004110000081100000c1100000c110000ef
:1001a8000c1100000c1100000c1100000c110000d3
:1001b8000c1100000c1100000c1100000c110000c3
:1001c8000c1100000c1100000c1100000c110000b3
:1001d8000c1100000c1100000c1100000c110000a3
:1001e8000c1100000c1100000c1100000c11000093
:0801f8000c1100000c110000c5
:020000040000fa
:10406c0012010000000200000000000000400000ef
:10407c006666000003000000000000000102000062
:10408c000001000009020000120000000101000004
:10409c0000a0000032090000040000000000000035
:1040ac00ff000000ff0000000403000009040000f2
:1040bc001a0300004f0000006c00000069000000b3
:1040cc006e00000020000000430000006f000000a4
:1040dc006c0000006c000000650000006700000030
:1040ec006500000044030000450000006c00000067
:1040fc006500000063000000610000006e0000001d
:10410c0069000000730000006d00000073000000e7
:10411c00200000004d000000690000006e0000004f
:10412c006900000070000000720000006f000000c9
:10413c006a000000650000006300000074000000cd
:10414c0020000000320000002000000046000000ab
:10415c0069000000720000006d0000007700000094
:10416c006100000072000000650000002564000082
:10417c003a250000643a0000256400003a2500004e
:0c418c00643a0000256400000a000000f6
:020000040000fa
:104198000400fa00000f7800214798000000000092
:1041a8001e02780014029000940278000420200077
:1041b80004826200e00f5200f9ff3a001e02780004
:1041c80024029000ae4290008582fb00050a780028
:1041d8000080fa00000006000200fa00000f7800d4
:1041e800000000001e0278001402900014027800fb
:1041f80061026200e00f5200faff32001e027800ee
:1042080034029000140278000442780004407800d8
:104218000080fa00000006000400fa00000f780091
:1042280021479800000000001e027800d412900078
:104238001e02780024129000848f5200faff320088
:104248001e027800941290001e027800441290001a
:10425800048242002e409000004a78001e02780036
:10426800441290008402e8001e0278002412900094
:10427800110009008482d8000102780084027800c5
:104288001e027800451298001e0278005412900011
:104298008402e8001e027800551298001e02780079
:1042a800d41290001e027800341a9000848f5200b5
:1042b800080039001e027800140290009e0278005f
:1042c8009502900015037800054020008682720050
:1042d800050a78000080fa00000006000400fa00d1
:1042e800100798001e029000540290009e02900051
:1042f800d5029000150378009e029000e54a9000d0
:104308008582fb0017002000853add008582ea00df
:1043180085026300050a78001e029000541290007e
:10432800e00f520025003a001e029000140290008f
:104338009e0290009502900015037800f5bf2f00ab
:1043480085026300050a78001d0037001e029000f0
:10435800941290001e0290003412900004824200d1
:10436800144f78001e029000341290008402e80076
:104378001e02900024129000110009008482d800c7
:1043880001027800840278001e029000351298001d
:104398001e029000541290008402e9001e02900050
:1043a800551298001e029000240290001e437800c7
:1043b8008682fb00050a7800010037000000000033
:1043c8001e0290001402900094027800042020003d
:1043d80004826200e00f520004003a001e029000be
:1043e80054129000e00f5200d8ff3a000080fa0003
:1043f800000006000400fa00100798000000000002
:104408001e029000241a9000e00f5200fcff3200b8
:104418001e029000e41290001e029000041a900000
:1044280004824200144f78001e029000041a900083
:104438008402e8001e029000741290001100090026
:104448008482d80001027800840278001e0290005d
:10445800051a98001e029000241a90008402e900b0
:104468001e029000251a98001e4278000440780029
:104478000080fa00000006000200fa00000f780031
:104488001e027800540290009e027800d502900027
:10449800150378009e027800f54a90008582fb009b
:1044a80017002000853add008582ea008502630056
:1044b800050a78001a0037001e027800e4129000fe
:1044c8001e027800141a9000048242009e027800ae
:1044d800b50290009502780085427800054a780078
:1044e8001e027800141a90008402e8001e02780068
:1044f80074129000110009008482d800010278002b
:10450800840278001e027800151a98001e027800ae
:10451800241a90008402e8001e027800251a9800e8
:104528001e027800140290001402780061026200f2
:1045380004427800e04f5200060032001e02780064
:10454800a41a90001e02780074129000848f520002
:10455800d9ff3a000080fa00000006003600f80093
:10456800809fbe00829fbe00849fbe00869fbe00c3
:104578003200f80000202000900188000000fa00b6
:10458800809b200055ff07000080fa003200f900e8
:104598004f03be004f02be004f01be004f00be00d9
:1045a8003600f900004006003600f800809fbe0083
:1045b800829fbe00849fbe00869fbe003200f80026
:1045c80000202000900188000000fa00809b200055
:1045d800a9ff07000080fa003200f9004f03be006f
:1045e8004f02be004f01be004f00be003600f9006a
:1045f800004006003600f800809fbe00829fbe0083
:10460800849fbe00869fbe003200f8000020200074
:10461800900188000000fa00409f20002fff07004b
:104628000080fa003200f9004f03be004f02be00be
:104638004f01be004f00be003600f90000400600e2
:104648003600f800809fbe00829fbe00849fbe0097
:10465800869fbe003200f8000020200090018800ec
:104668000000fa00409f200083ff07000080fa0046
:104678003200f9004f03be004f02be004f01be00da
:104688004f00be003600f900004006003600f80072
:10469800809fbe00829fbe00849fbe00869fbe0092
:1046a8003200f80000202000900188000000fa0085
:1046b80000a3200009ff07000080fa003200f9007b
:1046c8004f03be004f02be004f01be004f00be00a8
:1046d8003600f900004006003600f800809fbe0052
:1046e800829fbe00849fbe00869fbe003200f800f5
:1046f80000202000900188000000fa0000a320009c
:104708005dff07000080fa003200f9004f03be0089
:104718004f02be004f01be004f00be003600f90038
:10472800004006003600f800809fbe00829fbe0051
:10473800849fbe00869fbe003200f8000020200043
:10474800900188000000fa00c0a62000e3fe0700e0
:104758000080fa003200f9004f03be004f02be008d
:104768004f01be004f00be003600f90000400600b1
:104778003600f800809fbe00829fbe00849fbe0066
:10478800869fbe003200f8000020200090018800bb
:104798000000fa00c0a6200037ff07000080fa00da
:1047a8003200f9004f03be004f02be004f01be00a9
:1047b8004f00be003600f900004006000800fa006d
:1047c8001007980021079800320798001e029000f1
:1047d800e00f520029003500e10f520003003400b9
:1047e800e20f520013003200250037000002eb00f0
:1047f800040f78000a0037002e02900094427800d7
:104808002e0290000402e800240798004455800016
:104818008540780004007800610407001e0fe80056
:104828009e0278003e029000848f5200f2ff390009
:10483800130037000002eb00040f78000a0037006d
:104848002e029000944278002e0290000402e800a4
:1048580024079800545580008540780004007800ab
:104868004f0407001e0fe8009e0278003e029000e9
:10487800848f5200f2ff3900010037000000000069
:104888003e029000040078000080fa000000060054
:104898000000fa00530f0700446d2000841f7800c1
:1048a8005701200086c0b3008082eb0064c0b300cb
:1048b8008001eb00022f2000212f2000c0aa200039
:1048c800601007008f87e900a46d2000841f78001e
:1048d800a70120000043eb008082eb0074c0b30006
:1048e8008001eb00022f2000212f200020ac2000a7
:1048f800541007008f87e90044002000841f7800c7
:1049080034002000841f780084c0b300841f78001e
:104918000042eb00841f7800446a2000841f78005e
:10492800446a2000841f7800b4c0b300841f780054
:10493800c4c0b300841f780047092000460820003f
:104948008522200064222000432220002222200009
:1049580001222000809b20006b000700f087570091
:1049680064002000841f780054002000841f780011
:1049780084c0b300841f78000042eb00841f7800d5
:10498800646a2000841f7800646a2000841f78000d
:10499800e4c0b300841f7800f4c0b300841f78001b
:1049a8006709200066082000852320006423200072
:1049b800432320002223200001232000409f2000c1
:1049c80051000700f0875700d4012000841f7800a9
:1049d800c4012000841f780084c0b300841f7800bd
:1049e80084c0b300841f7800a46a2000841f780064
:1049f800246a2000841f780024c0b300841f780034
:104a080034c0b300841f7800e7092000e6082000be
:104a1800852520006425200043252000222520002c
:104a28000125200000a3200037000700f087570069
:104a3800f4012000841f7800e4012000841f78001e
:104a480084c0b300841f78000042eb00841f780004
:104a5800646b2000841f7800646b2000841f78003a
:104a680084c0b300841f780094c0b300841f78000a
:104a7800e7092000e6082000852b2000642b200091
:104a8800432b2000222b2000012b2000c0a6200051
:104a98001d000700f08757000002eb00841f780014
:104aa8000002eb00841f78000002eb00841f7800ee
:104ab8000002eb00841f78000002eb00841f7800de
:104ac80014002000841f7800e5c4b300060020000d
:104ad800177e24000002eb008001eb0022ac2000ce
:104ae800c1aa2000809b200072000700ec875700b5
:104af800849b200044558800849b200054558800de
:104b08000080fa00000006001000fa00000f78008c
:104b18001107980022079800330798004407980067
:104b28005507980066079800770798001e027800d6
:104b38009e029000050a78001e027800ae029000de
:104b4800150298001e027800be0290002502980007
:104b58001e027800ce029000350298001e027800ee
:104b6800de029000450298001e027800ee029000d6
:104b7800550298001e027800fe0290006502980017
:104b88001e0278008efa9700654a98001e02780087
:104b9800eef29700754a98001e027800aeba9700a8
:104ba800050a98001e0278009eba9700150a980018
:104bb8001e0278008ef29700455298001e02780077
:104bc800eeea9700555298001e027800eeb2970060
:104bd800350a98001e027800deb29700450a980050
:104be8001e0278008002eb00550a98001e02780029
:104bf8008002eb00650a98001e0278008002eb0034
:104c0800750a98001e0278008002eb0005129800d1
:104c18001e0278008002eb00151298001e02780030
:104c28008002eb00251298001e0278008002eb003b
:104c3800351298001e0278008002eb004512980099
:104c48001e0278008002eb00551298001e027800c0
:104c58008002eb00651298001e0278008002eb00cb
:104c6800751298001e0278008002eb00051a980061
:104c78001e0278008002eb00151a98001e027800c8
:104c88008002eb00251a98001e027800150020000b
:104c9800351a98001e0278008002eb00451a980029
:104ca8001e0278008002eb00551a98000080fa0076
:104cb800000006001000fa00881f7800000f780036
:104cc80011079800220798003307980044079800b6
:104cd8005607980067079800654f98001e027800ed
:104ce800140278008002eb00050a78001e0290008a
:104cf80064029000e10f42001b0232002e02900075
:104d080064029000e10f4200190232001e02900076
:104d1800040a9000e00f520069003a002e02900049
:104d2800040a9000e00f520065003a001e0090004f
:104d3800970f07001e009000f20f07002e0090004a
:104d48006c0f07001e0278009e029000550a98001a
:104d58001e0290009e027800050a98001e0290002c
:104d68008002eb00150a98001e0290008002eb00fa
:104d7800250a98001e027800ae029000650a980085
:104d88002e0290009e027800050a98002e029000dc
:104d98008002eb00150a98002e0290008002eb00ba
:104da800250a9800153a8000f40b2000048362005d
:104db800640420007505200027742000844b7800c7
:104dc800854b7800864b78001e0290007402900094
:104dd8009e029000f5029000150378009e02900054
:104de800a54a90008582fb00f7032000853add0084
:104df8008582ea0085026300050a78001e02900099
:104e0800740290009e029000f5029000150378004d
:104e18009e027800b50b90009e029000a54a900073
:104e28008582fb00853add0086827200050a7800db
:104e38001e027800040a90009e027800850a9000fd
:104e4800150378009e027800c55290008582fb0009
:104e5800f7032000853add008582ea0085026300b9
:104e6800050a78001e027800040a90009e02780065
:104e7800850a900015037800ae029000e5039000c3
:104e88009e027800c55290008582fb00853add00bd
:104e980086827200050a7800153a80000404200012
:104ea80005037200640420007505200027742000a3
:104eb800844b7800854b7800864b78000a003700d1
:104ec8001e027800d40a90001e029000848f5200bf
:104ed800a9013a001e027800e40a90002e02900010
:104ee800848f5200a6013a003e029000e00f520063
:104ef800870032004e029000e00f5200840032001a
:104f08003e02900064029000e10f42009e013200d0
:104f18004e02900064029000e10f42009c013200b2
:104f28003e029000040a9000e00f520069003a0027
:104f38004e029000040a9000e00f520065003a000b
:104f48003e009000120f07003e0090006d0f070012
:104f58004e009000e70e07001e027800be02900087
:104f6800750a98003e0290009e027800050a980093
:104f78003e0290008002eb00150a98003e02900065
:104f88008002eb00250a98001e027800ce029000ed
:104f9800051298004e0290009e027800050a9800bb
:104fa8004e0290008002eb00150a98004e02900015
:104fb8008002eb00250a9800153a8000f40b2000c7
:104fc8000483620064042000750520002774200013
:104fd800844b7800854b7800864b78003e02900021
:104fe80074029000be029000f5029000150378004c
:104ff800be029000a54a90008582fb00f7032000be
:10500800853add008582ea0085026300050a78009a
:105018003e02900074029000be029000f5029000db
:10502800150378009e027800c50b9000be02900020
:10503800a54a90008582fb00853add0086827200d1
:10504800050a78001e027800140a90009e02780073
:10505800950a9000150378009e027800d5529000ba
:105068008582fb00f7032000853add008582ea008f
:1050780085026300050a78001e027800140a900071
:105088009e027800950a900015037800ce029000e1
:10509800e50390009e027800d55290008582fb00bf
:1050a800853add0086827200050a7800153a80008c
:1050b8000404200005037200640420007505200024
:1050c80027742000844b7800854b7800864b780045
:1050d8000a0037001e027800f40a90003e02900091
:1050e800848f52002c013a001e027800841290002e
:1050f8004e029000848f520029013a001e02780067
:105108001402780005202000050a78000600370000
:105118003e029000e00f520023013a004e02900038
:10512800e00f520022013a0018c0b30002402200ea
:1051380043a724005e009000ee0090005bf5070096
:1051480000027800e00f520001003c000044eb0030
:10515800e04f5400040032000440220045a7240018
:10516800540798006507980018c0b3000240220051
:10517800431724005e009000ee00900049f50700f8
:1051880000027800e00f5200010035000044eb00f7
:10519800e04f540004003200044022004517240068
:1051a800540798006507980018c0b3000240220011
:1051b800432724005e009000ee00900039f50700b8
:1051c80000027800e00f5200010034000044eb00b8
:1051d800e04f5400140032001e027800440490008e
:1051e8005e019000ee0190000040220041972400eb
:1051f800eaf407000002be000200200003f02300ca
:105208000400be0088f407000002be000400be00cf
:1052180028f507000002be00040278000402e90035
:10522800040c78001a0037001e0278001402780077
:105238009e02780095027800950278000530a0005b
:10524800050a78001e027800440490005e01900070
:10525800ee0190000040220041a72400cff407008f
:105268000002be000200200003f023000400be007c
:105278006df407000002be000400be000df5070033
:105288000002be00040278000402e900040c780061
:10529800ee4a900054c4b30084cf52000400320098
:1052a800ee4a900054c6b30084cf520008003a007a
:1052b8001e027800140278009e0278009502780099
:1052c800950278000510a000050a7800180037003c
:1052d800ee4a9000f4c4b30084cf520004003200b8
:1052e800ee4a9000f4c6b30084cf520008003a009a
:1052f8001e027800140278009e0278009502780059
:10530800950278000520a000050a780008003700fb
:10531800ee4a9000e4c4b30084cf52000400320087
:10532800ee4a9000e4c6b30084cf5200a2003a00cf
:105338004eba9700e20f520008003a001e027800a9
:10534800140278009e027800950278009502780091
:105358000500a000050a7800030037004eba970040
:10536800e10f520096003a002eba9700e00f520063
:1053780004003a001e027800c50c2200451a980065
:10538800360037001e027800140290009e02780052
:1053980095029000150378000500220086827200ad
:1053a800050a78001e027800aeba97001512980018
:1053b8001e0278009eba9700251298001e027800f7
:1053c8008002eb00351298001e0278008002eb0084
:1053d800451298001e0278008002eb0055129800d2
:1053e8001e027800beba9700351a98001e0278008f
:1053f80005112200451a98001e02780054029000f8
:105408009e027800d5029000150378009e0278006d
:10541800e54a90008582fb0017002000853add00f0
:105428008582ea0085026300050a78001e0278007a
:10543800640290009e027800e5029000150378004f
:105448009e027800e54a90008582fb001700200044
:10545800853add0086827200050a78000eba970048
:10546800e00f520004003a001e027800050f2200e7
:10547800551a98002b0037001e0278008eba970044
:10548800651298001e027800feb297007512980007
:105498001e0278008002eb00051a98001e027800b0
:1054a8008002eb00151a98001e0278008002eb00bb
:1054b800251a98001e027800e51f2200551a980048
:1054c8001e027800540290009e027800d5029000d7
:1054d800150378009e027800f54a90008582fb004b
:1054e80017002000853add008582ea008502630006
:1054f800050a78001e027800640290009e02780077
:10550800e5029000150378009e027800f54a9000a5
:105518008582fb0017002000853add008682720034
:10552800050a78001e027800140278009e027800ae
:10553800950278001503780005002800868272001d
:10554800050a78001e027800140290009e02780076
:1055580095029000150378000540200086827200ad
:10556800050a780017003700000000001500370012
:105578000000000013003700000000001100370091
:10558800000000000f003700000000000d00370089
:10559800000000000b003700000000000900370081
:1055a8000000000007003700000000000500370079
:1055b8000000000003003700000000000100370071
:1055c800000000004f0478000080fa000000060088
:1055d8000200fa00000f78001e0278001402900002
:1055e8009e0278009502900015037800f5bf2f0001
:1055f80085026300050a78001e027800140278000c
:105608008002eb00050a78001e0278006402900010
:105618009e027800e5029000150378009e0278004b
:10562800e54a90008582fb0017002000853add00de
:105638008582ea0085026300050a78001e02780068
:10564800640290009e027800e5029000150378003d
:105658009e027800f54a90008582fb001700200022
:10566800853add008582ea0085026300050a780034
:105678001e0278008002eb00451a98001e0278008e
:105688008002eb00551a98001e027800540a900018
:10569800e00f520031003200153a8000f40b200070
:1056a800048362006404200075052000277420002c
:1056b800844b7800854b7800864b78001e02780072
:1056c800540a9000740290009e027800d50a900057
:1056d800f5029000150378009e027800d50a900024
:1056e800a54a90008582fb00f7032000853add007b
:1056f8008582ea0085026300050a7800153a800071
:1057080004042000050372006404200075052000cd
:1057180027742000844b7800854b7800864b7800ee
:105728001e027800540a90008002eb00050a9800d7
:105738001e027800540a900004007800140d070037
:105748001e027800540a9000040078006d0d0700ce
:105758001e0278008002eb00550a98001e027800ad
:10576800640a9000e00f520029003200153a8000c8
:10577800f40b2000048362006404200075052000f7
:1057880027742000844b7800854b7800864b78007e
:105798001e027800040a90009e027800850a900094
:1057a800150378009e027800c55290008582fb00a0
:1057b800f7032000853add0086827200050a78002a
:1057c800153a8000040420000503720064042000d8
:1057d8007505200027742000844b7800854b7800dd
:1057e800864b78001e027800640a90008002eb0065
:1057f800050a98001e027800640a900004007800e8
:10580800bc0c07001e0278008002eb00650a9800b5
:105818001e027800740a9000e00f52003100320036
:10582800153a8000f40b2000048362006404200011
:105838007505200027742000844b7800854b78007c
:10584800864b78001e027800740a9000740290005b
:105858009e027800f50a9000f50290001503780082
:105868009e027800f50a9000a54a90008582fb0008
:10587800f7032000853add008582ea00850263008f
:10588800050a7800153a8000040420000503720018
:10589800640420007505200027742000844b7800dc
:1058a800854b7800864b78001e027800740a9000b9
:1058b8008002eb00050a98001e027800740a900026
:1058c80004007800b20c07001e027800740a9000e9
:1058d800040078000b0d07001e0278008002eb0020
:1058e800750a98001e02780004129000e00f52001a
:1058f80029003200153a8000f40b2000048362006e
:10590800640420007505200027742000844b78006b
:10591800854b7800864b78001e027800140a9000a8
:105928009e027800950a9000150378009e02780080
:10593800d55290008582fb00f7032000853add00f0
:1059480086827200050a7800153a80000404200057
:1059580005037200640420007505200027742000e8
:10596800844b7800854b7800864b78001e027800bf
:10597800041290008002eb00050a98001e027800cd
:1059880004129000040078005a0c07001e027800e8
:105998008002eb00051298000080fa000000060063
:1059a8000400fa00000f7800214798001e027800d2
:1059b800441a9000e00f5200050032001e027800e1
:1059c800441a9000ae4090001e00780004000100c8
:1059d8000080fa00000006000200fa00000f7800bc
:1059e8001e027800541a9000e00f520006003200a0
:1059f8001e027800541a90001e007800040001006e
:105a0800004278000100370000c2eb000440780033
:105a18000080fa00000006000200fa00000f78007b
:105a28001e027800140290009402780004402000be
:105a380004826200e00f520008003a001e0278005b
:105a4800140290009e0278009502900015037800d9
:105a58000540200086827200050a78000080fa005e
:105a6800000006000400fa00000f780011079800f3
:105a7800080037001e029000144278009e02900031
:105a88008502e80015079800844078001e00780019
:105a9800c3ff07001e02900014427800e04f520036
:105aa800f4ff3a001e007800dbff07000080fa00d0
:105ab800000006000a00fa00200798003107980045
:105ac800420798004e029000e00f52008800320012
:105ad8004e029000e10f520004003a003e0290008e
:105ae8008042eb00054a780082003700b1c1b3005c
:105af8002e009000aaff070071c3b3002e0090008b
:105b0800a7ff07002e009000c3ff07003e02900089
:105b1800140798004e029000040f78000300370025
:105b28000000000001003700000000002e00900077
:105b3800a9ff070000427800be029000844a78005e
:105b48003e02900014427800ed4f52000c003a00db
:105b58003e0290008042eb00054a7800a1c0b300e5
:105b68002e0090008eff0700d1c0b3002e009000d9
:105b78008bff07002e009000a7ff07005d0037008d
:105b88003e02900014427800fb4f520016003a0083
:105b9800b1c1b3002e00900081ff070081c3b3009c
:105ba8002e0090007eff0700b1c1b3002e009000c8
:105bb8007bff0700b1c5b3002e00900078ff0700f7
:105bc800b1c4b3002e00900075ff07002e009000ae
:105bd80091ff07001e029000340798004e029000c3
:105be800040f7800410037003e029000144278000c
:105bf800e84f5200050032003e02900094427800bf
:105c0800f4c7b30084cf52001a003a00be029000d5
:105c18001e029000848f52001000360081c0b3002d
:105c28002e0090005eff070001c2b3002e00900016
:105c38005bff070081c0b3002e00900058ff0700eb
:105c48002e00900074ff07003e0290000402e90055
:105c5800340798001e0fe8000500370071c0b30034
:105c68002e0090004eff07002e0090006aff0700ec
:105c78001e0037001e027800e10f520006003a00ad
:105c880071c0b3002e00900045ff07002e00900061
:105c980061ff0700150037003e02900014427800ab
:105ca800ff4f52009eff36003e029000944278005b
:105cb800e4c7b30084cf52009bff3e003e02900031
:105cc80014427800844078002e00900034ff0700ca
:105cd8002e00900050ff07003e0290000402e800ea
:105ce800340798001e0fe90090ff37008fff370038
:105cf800000000000080fa00000006000400fa001e
:105d08009424a8000002eb00b4248800f40f2000bb
:105d1800742488009424a900a44a20001407980039
:105d28000042eb00044f7800080037009e427800dc
:105d38000582fb00040242009e0290000482420099
:105d48008002eb00050a78001e4fe8001e4278002a
:105d5800ef4f5200f5ff3600d4002000542588008c
:105d680004c4b3008442780006e02000054b7800a4
:105d7800a4b720001470880084c8b3008442780057
:105d880016e02000054b7800a4bb20003470880082
:105d980084c0b3008442780056e02000054b7800a8
:105da8000002eb00342588000002eb00442588003f
:105db80004e020004822de00c42488008644a800ad
:105dc80086e4a8008804a80094a4a9000042eb0077
:105dd8008442780036c12000054b78000042eb0071
:105de8008442780066c12000054b780014c0b300d7
:105df8008442780046c12000054b780000c2eb00c1
:105e08008442780066c02000054b780000c2eb0091
:105e18008442780076c02000054b7800000000001e
:105e2800a52480000404200004826200e00f5200d0
:105e3800fbff3a000080fa00000006000600fa00a6
:105e48005424800062026200e00f52000500320014
:105e5800f40f2000742488002400200054248800b3
:105e6800aa0037005424800064026200e00f520048
:105e7800030032004400200054248800a3003700a7
:105e88005424800070026200e00f520003003200c8
:105e980004012000542488009c0037005524800009
:105ea8000402200004826200e00f52000300320066
:105eb80004022000542488009400370055248000f0
:105ec8000408200004826200e00f52000300320040
:105ed80004082000542488008c00370054248000d3
:105ee80061026200e00f5200400032000042eb0005
:105ef8000443780035c12000864a7800080037003e
:105f080084002000542488000000000000000000e5
:105f18000000000000000000000000000000000079
:105f28005424800068026200e00f5200f4ff3a0037
:105f3800a44a2000140798000042eb00044f7800a0
:105f4800080037009e4278000582fb0004024200e8
:105f58009e029000048242008002eb00050a78004d
:105f68001e4fe8001e427800ef4f5200f5ff360042
:105f780004c4b3008442780006e02000054b780092
:105f8800a4b720001470880084c8b3008442780045
:105f980016e02000054b7800a4bb20003470880070
:105fa80084c0b3008442780056e02000054b780096
:105fb8000002eb00b4248800f40f20005424880069
:105fc800d40020005425880014c0b300844278000f
:105fd80066c12000054b780014c0b30084427800e5
:105fe80046c12000054b7800480037005424800043
:105ff80068026200e00f52004400320094248000de
:106008004322de00c222dd0004e0200004824200b8
:10601800240798002e0290001442900084427800d1
:10602800b6bf2000054b78002e029000144278007d
:1060380084427800a6bf2000054b78002e0290000d
:1060480014029000e45f88009424800004427800e1
:106058008442780056c12000054b78008400200057
:10606800542488000042eb008442780026c12000b6
:10607800054b7800b4bf2000144278008482fb00ee
:10608800c40320000482620045022000850f5200ec
:106098000800320045032000850f5200030032003b
:1060a800e40f520005003200050037001900070010
:1060b800030037005c030700010037009303070063
:1060c80024c12000144278000482fb0061026200af
:1060d80004427800e04f52000c00320004c4b300c0
:1060e8008442780006e02000054b780044c8b300dd
:1060f8008442780056e02000054b780044c8b3007d
:106108008442780016e02000054b78000080fa00f1
:10611800000006000200fa00e45f8000040f780027
:106128001e02780094427800e4bf2000054a7800f7
:106138001e0fe8001e02780094427800e4bf200099
:10614800154298001e0fe8001e027800944278005d
:10615800e4bf2000254298001e0fe8001e027800c8
:1061680094427800e4bf2000354298001e0fe800f2
:106178001e02780094427800e4bf2000454298004f
:106188001e0fe8001e02780094427800e4bf200049
:10619800554298001e0fe8001e02780094427800cd
:1061a800e4bf2000654298001e0fe8001e02780038
:1061b80094427800e4bf2000754298001e0fe80062
:1061c80004c4b3000443780005e02000864a780040
:1061d80084c0b3000443780055e02000864a780064
:1061e800e4bf200014427800e04f5200060035005a
:1061f800e4bf200034029000e00f52000200320099
:1062080084ccb3000100370084c8b300044378008d
:1062180015e02000864a780094a4a90000c2eb008b
:106228000443780065c02000864a780000c2eb006d
:106238000443780075c02000864a7800e4bf200037
:10624800144278008482fb00040620000482620065
:10625800e00f52000400320005042000850f5200b0
:1062680003003200040037000b0007000800370065
:10627800c30b07000600370024c120001442780031
:106288000404a0000443780025c12000864a780051
:106298000080fa00000006000600fa00e4bf2000b3
:1062a800144290000482fb00cfa2de00b60020005a
:1062b80007002000860f5200878f5a00d2023e0046
:1062c800046001000b003700d1003700ce02370010
:1062d800cf003700cc02370085013700ab0137000b
:1062e800c9023700330237003f0237007502370012
:1062f80098023700e4bf2000144278000482fb00b3
:106308007f026200e10f520015003200e20f5200d6
:106318003d003200e00f5200b5003a0034708000b2
:1063280045c1200095427800054a78003470800005
:106338000402e8008042eb00054a780024c0b3005c
:106348000443780045e02000864a780084ccb300f6
:106358000443780055e02000864a7800ab003700f7
:1063680064c12000144278000482fb00e20f52004e
:1063780003003200e30f520008003200210037000a
:1063880024c12000144278000404a00004437800cb
:1063980025c12000864a78001a003700e4bf200093
:1063a80044429000e04f520010003a0034708000e0
:1063b8008042eb00054a7800347080000402e8004f
:1063c8008042eb00054a780024c0b30004437800fb
:1063d80045e02000864a780084ccb3000443780066
:1063e80055e02000864a78000600370024c12000c6
:1063f800144278000404a0000443780025c120005a
:10640800864a78008100370064c120001442780071
:106418000482fb00e20f520003003200e30f520037
:106428002e0032006b003700e4bf20004442900089
:106438000482fb006f026200e00f520020003a0065
:1064480035708000e4bf200044429000e04f5200c5
:1064580007003d0054e02000144278000482fb004d
:106468006402620042a2de0004427800060037009f
:1064780014e02000144278000482fb0064026200e9
:1064880042a2de0004427800844a7800347080001a
:106498000402e8008042eb00054a780024c0b300fb
:1064a8000443780045e02000864a780084ccb30095
:1064b8000443780055e02000864a7800060037003b
:1064c80024c12000144278000404a000044378008a
:1064d80025c12000864a780044003700a44a2000dd
:1064e80014079800e4bf2000444290006f4f6200f8
:1064f8009e4278000582fb00040242008402780074
:10650800e4bf2000444290000402fb004f22de005a
:1065180005027200c222dd0004e02000048242006d
:10652800240798001e4378000682fb0004024200fc
:106538009e0290000482420094027800e4bf20008a
:1065480044429000e04f520002003d004400200009
:10655800010037008400200004826200e00f52002e
:106568001500320034708000ae0290009542900011
:106578008582fb00e4826200c2aade0085427800c0
:10658800054a7800347080000402e8008042eb007d
:10659800054a780024c0b3000443780045e0200091
:1065a800864a780084ccb3000443780055e0200084
:1065b800864a78000600370024c12000144278007b
:1065c8000404a0000443780025c12000864a78000e
:1065d8000600370024c12000144278000404a000fb
:1065e8000443780025c12000864a78000700370058
:1065f80024c12000144278000404a0000443780059
:1066080025c12000864a78000502370004023700b9
:10661800e4bf2000144278000482fb007f0262007d
:10662800e00f520003003200e20f5200280032004f
:10663800a7003700e4bf2000244290000482fb003a
:10664800e10f52001b003a00e4bf20001442900002
:10665800e14f520008003a0045c1200095427800f9
:10666800e4cfb30004c262000443780045c12000af
:10667800864a78000600370044c12000144278009a
:106688000404a0000443780045c12000864a78002d
:106698000042eb000443780045e02000864a780079
:1066a80084ccb3000443780055e02000864a780083
:1066b8000600370024c12000144278000404a0001a
:1066c8000443780025c12000864a780087003700f7
:1066d80064c12000144278000482fb00e20f5200db
:1066e80003003200e30f5200170032007100370038
:1066f800e4bf2000444290000482fb006f02620065
:10670800e00f520009003a000042eb000443780011
:1067180045e02000864a780084ccb3000443780022
:1067280055e02000864a78000600370024c1200082
:10673800144278000404a0000443780025c1200016
:10674800864a780061003700a44a200014079800a0
:10675800e4bf2000444290006f4f62001e42780060
:10676800e04f5200440032009e4278000582fb0050
:106778000402420084027800e4bf200044429000f2
:106788000402fb004f22de0005027200c222dd0077
:1067980004e020000482420024079800e4bf20009f
:1067a80044429000e04f52001a003d001e4378001a
:1067b8000682fb00040242009e029000048242000e
:1067c8001402780064026200e00f52000a003200ee
:1067d800e4bf200014429000e14f520002003a004a
:1067e8000042eb000100370044c8b300ae0290003d
:1067f800944298002000370024c1200014427800f9
:106808000404a0000443780025c12000864a7800cb
:10681800190037009e4278000582fb0004024200fe
:106828009e0290000482420014027800680262000e
:10683800e00f52000a003200e4bf2000144290002a
:10684800e14f520002003a0084c8b300010037004b
:1068580044c8b300ae029000944298000600370086
:1068680024c12000144278000404a0008442780067
:1068780026c12000054b780024c12000144278006e
:106888000482fb0061026200e00f520008003a0037
:106898000042eb008442780046e02000054b780077
:1068a80084ccb3008442780056e02000054b780081
:1068b8000600370024c12000144278000404a00018
:1068c8008442780026c12000054b78000700370075
:1068d80024c12000144278000404a00084427800f7
:1068e80026c12000054b78004d0137004c013700c8
:1068f800e4bf200024429000e04f520007003d0012
:1069080024c12000144278000404a00084427800c6
:1069180026c12000054b780041013700e4bf200064
:10692800144278008442780066c02000054b780045
:10693800e4bf2000144290008442780076c0200012
:10694800054b7800e4bf20001402900044608800e2
:10695800e4bf20002402900054608800e4bf2000b7
:1069680034029000646088000042eb0084427800a2
:1069780046e02000054b780084ccb30084427800c0
:1069880056e02000054b780025013700e4bf2000c1
:10699800144278008442780066c02000054b7800d5
:1069a800e4bf2000144290008442780076c02000a2
:1069b800054b7800e4bf2000140290004460880072
:1069c800e4bf20002402900054608800e4bf200047
:1069d8003402900064608800e4bf200034429000d4
:1069e8000482fb00e20f520014003200e30f520051
:1069f8003c003200e10f520066003a0064032a00ae
:106a08007460880074608000144278000482fb007f
:106a180084608800e4bf2000b40290008460800095
:106a2800848f520003003100e4bf2000340290003c
:106a380084608800600107005d003700e4bf200023
:106a4800244290000482fb00e00f520003003a0049
:106a580084042a00746088000600370024c12000de
:106a6800144278000404a0008442780026c1200063
:106a7800054b780024c12000144278000482fb00f2
:106a880061026200e00f520015003a007460800055
:106a98000482e800144278008442780006c120008d
:106aa800054b78007460800063024200144278004d
:106ab8008442780016c12000054b7800e4bf20000e
:106ac800b402900084608000848f5200030031007b
:106ad800e4bf20003402900084608800360107007b
:106ae80033003700e4bf2000244290000482fb00fa
:106af800e10f520007003200e20f52000800320096
:106b0800e00f520009003a00a4052a0074608800ca
:106b18000c003700e4052a0074608800090037007b
:106b280084072a00746088000600370024c120000a
:106b3800144278000404a0008442780026c1200092
:106b4800054b780024c12000144278000482fb0021
:106b580061026200e00f52000d003a00746080008c
:106b6800144278000482fb0084608800e4bf20009f
:106b7800b402900084608000848f520003003100ca
:106b8800e4bf200034029000846088000a010700f6
:106b98000700370024c12000144278000404a00034
:106ba8008442780026c12000054b78009c003700fd
:106bb8009b0037003470800035c120009542780072
:106bc800054a780014c0b3008442780046e02000eb
:106bd800054b780084ccb3008442780056e020004e
:106be800054b78008e003700e4bf20002442900057
:106bf800e14f52002c003e00a44a200014079800e0
:106c080014c0b300044f7800080037001e43780012
:106c18000682fb00040242009e02900004824200a9
:106c28008002eb00050a78001e4fe8001e4278003b
:106c3800ef4f5200f5ff3600e4bf200024429000d9
:106c48000443780035c12000864a780034c120000a
:106c5800144278000482fb00e00f520005003a005d
:106c680024c0b3000443780065c12000864a780038
:106c78000400370034c0b3000443780065c1200025
:106c8800864a78000042eb000443780045e0200083
:106c9800864a780084ccb3000443780055e020008d
:106ca800864a78005e00370024c12000144278002c
:106cb8000404a0000443780025c12000864a780017
:106cc8005700370064c12000144278000482fb009a
:106cd800e30f520018003a00e4bf2000444290003d
:106ce800e04f52000c003a00347080008042eb0004
:106cf800054a780014c0b3000443780045e020003a
:106d0800864a780084ccb3000443780055e020001c
:106d1800864a78000600370024c120001442780013
:106d28000404a0000443780025c12000864a7800a6
:106d3800000000003a00370024c120001442780007
:106d48000404a0000443780025c12000864a780086
:106d58003300370064c12000144278000482fb002d
:106d6800e30f520021003a00e4bf200044429000a3
:106d7800e04f520015003a00e4bf20002442900082
:106d88000482fb00e00f520009003a000042eb00c9
:106d98000443780045e02000864a780084ccb3009c
:106da8000443780055e02000864a78000d0037003b
:106db80024c12000144278000404a0000443780091
:106dc80025c12000864a78000600370024c120002b
:106dd800144278000404a0000443780025c1200070
:106de800864a7800000000000d00370024c120000a
:106df800144278000404a0000443780025c1200050
:106e0800864a78000600370024c120001442780022
:106e18000404a0000443780025c12000864a7800b5
:106e28000080fa00000006000000fa0054c12000ab
:106e3800144278008482fb00040f20000482620060
:106e4800e00f52002f003a0064c02000144278007e
:106e58008482fb00040620000482620005022000f0
:106e6800850f52002300320005042000850f5200d0
:106e78001e003200e00f520021003a0074c02000ca
:106e8800144278000482fb00e50f52000300320030
:106e9800e60f5200120032001700370084c02000ad
:106ea800144278000482fb00b4248800b4248000d3
:106eb800e00f520005003a0014c0b3000443780004
:106ec80065c12000864a78000400370024c0b3005a
:106ed8000443780065c12000864a78000200370024
:106ee800350007000000000003003700c108070054
:106ef800010037000000000000000000010037001a
:106f0800000000000080fa00000006000000fa00ff
:106f180054c12000144278008482fb00040f200032
:106f280004826200e00f520021003a0064c0200091
:106f3800144278008482fb00040620000482620068
:106f480005022000850f52000500320005042000cc
:106f5800850f520004003a00af080700030037000d
:106f680000000000010037000000000004c4b30066
:106f78000443780005e02000864a780084c8b300fe
:106f88000443780015e02000864a78000042eb00b0
:106f98000443780045e02000864a780084ccb3009a
:106fa8000443780055e02000864a7800000000007d
:106fb8000080fa00000006000200fa0085608000e8
:106fc800f4032000848f52000d003e00846080008e
:106fd800044f78000002eb008460880000c2eb00d8
:106fe8000443780065c02000864a780000c2eb00a0
:106ff8000443780075c02000864a780005003700f1
:1070080004c4b300044f7800846080000404b10015
:10701800846088000042eb00144798000c00370099
:10702800357080001e4290000482fb00848242007a
:107038007460800014437800864a78000402e800ef
:10704800746088001e4290000442e80014479800cb
:107058001e4290009e4f5200f1ff39009e42780078
:1070680044e02000054a780054e0200014427800eb
:1070780004c2ea0006c4b3008642620084c8b300b2
:1070880004c272000443780055e02000864a780064
:107098000080fa00000006000200fa00000f7800e5
:1070a8001e0078000e0207001e027800140a9000e5
:1070b800e00f5200050032001e027800140a90000a
:1070c8001e007800040001001a0037001e02780034
:1070d800240a9000e00f5200140032001e027800cb
:1070e800040a9000e00f52000a0032001e027800e5
:1070f800240a90001e007800040001001e02780097
:10710800040a90008402e9001e027800050a98002b
:10711800080037001e0078001a0207001e027800d7
:107128008002eb00250a9800020037001e00780054
:10713800140207000080fa00000006003600f8007c
:10714800809fbe00829fbe00849fbe00869fbe00b7
:107158003200f80000202000900188000000fa00aa
:1071680080c12000ccff07000080fa003200f9003f
:107178004f03be004f02be004f01be004f00be00cd
:107188003600f900004006003600f800809fbe0077
:10719800829fbe00849fbe00869fbe003200f8001a
:1071a80000202000900188000000fa00e0c22000c2
:1071b800b9ff07000080fa003200f9004f03be0053
:1071c8004f02be004f01be004f00be003600f9005e
:1071d800004006003600f800809fbe00829fbe0077
:1071e800849fbe00869fbe003200f8000020200069
:1071f800900188000000fa0040c42000a6ff0700a4
:107208000080fa003200f9004f03be004f02be00b2
:107218004f01be004f00be003600f90000400600d6
:107228003600f800809fbe00829fbe00849fbe008b
:10723800869fbe003200f8000020200090018800e0
:107248000000fa00a0c5200093ff07000080fa00a4
:107258003200f9004f03be004f02be004f01be00ce
:107268004f00be003600f900004006003600f80066
:10727800809fbe00829fbe00849fbe00869fbe0086
:107288003200f80000202000900188000000fa0079
:1072980000c7200080ff07000080fa003200f900d4
:1072a8004f03be004f02be004f01be004f00be009c
:1072b8003600f900004006000000fa00b400200083
:1072c800841f78004700200036c0b300450920001d
:1072d8004408200003102000221020004110200044
:1072e80080c12000330007008f87e900c400200018
:1072f800841f78008003eb0076c0b30045092000a6
:107308004408200063102000c21020000111200052
:10731800e0c22000270007008f87e900d400200082
:10732800841f78001700200086c0b300450920009c
:1073380044082000a3102000e210200021112000a2
:1073480040c420001b0007008f87e900e4002000ec
:10735800841f780027002000b6c0b300650920000c
:107368006408200043112000a2112000e111200030
:10737800a0c520000f0007008f87e900f400200057
:10738800841f780037002000c6c0b30065092000bc
:107398006408200083112000c2112000011220007f
:1073a80000c72000030007008f87e9000080fa006b
:1073b800000006001000fa00000f7800110798007e
:1073c800220798003307980044079800550798004b
:1073d800464f9800770798001e0278009e0290009a
:1073e800050a78001e027800ae0290001502980087
:1073f8001e027800be029000250298001e02780046
:10740800ce029000350298001e027800de0290003d
:10741800450298001e027800ce4a9000254a98003e
:107428001e027800fe029000650298001e02780095
:10743800ceba9700750298001e0278008002eb0011
:10744800050a98001e0278008002eb00150a9800d1
:107458001e0278008002eb00250a98000080fa00de
:10746800000006000600fa00881f7800000f780068
:10747800120798002307980018c0b300d27b230096
:1074880063f823001e009000ae00900087ec070010
:1074980000027800e00f520001003c000044eb00bd
:1074a800e04f540078003a0018c0b300d27b2300a4
:1074b80063e823001e009000ae0090007bec0700fc
:1074c80000027800e00f520001003c000044eb008d
:1074d800e04f5400150032001e007800e20007005b
:1074e8001e0278001402780005032000050a7800bf
:1074f8001e02780014049000024022004377240002
:107508001e009000ae009000daec07000002be00fa
:107518000400be0067ec07000002be000402780009
:107528000402e900040c78005800370018c0b300c2
:10753800d27b230063d023001e009000ae00900091
:107548005aec070000027800e00f520001003c00ee
:107558000044eb00e04f5400150032001e00780094
:10756800c10007001e0278001402780005022000fe
:10757800050a78001e0278001404900002402200d8
:10758800438724001e009000ae009000b9ec07006d
:107598000002be000400be0046ec07000002be0068
:1075a800040278000402e900040c78003700370070
:1075b80018c0b300d27b230063b823001e009000dc
:1075c800ae00900039ec070000027800e00f52008e
:1075d80001003c000044eb00e04f5400150032006d
:1075e8001e007800a00007001e0278001402780030
:1075f80005012000050a78001e0278001404900096
:1076080002402200439f24001e009000ae0090001c
:1076180098ec07000002be000400be0025ec07003d
:107628000002be00040278000402e900040c78009d
:10763800160037001e0078008b0007001e02780035
:10764800140278008002eb00050a78001e02780018
:10765800140490000240220043b724001e0090004a
:10766800ae00900083ec07000002be000400be00dc
:1076780010ec07000002be00040278000402e900d2
:10768800040c780001003700000000004f04780067
:107698000080fa00000006000400fa00889fbe007f
:1076a800100798001e0290001402780094027800d7
:1076b80004032000048262004422de00040f7800e4
:1076c8001e027800c222dd0084cd20000482420020
:1076d8001404be001e0290001402900014027800e8
:1076e800050020000400be000dec07000002be00eb
:1076f8000200200003f823000400be004aeb070044
:107708000002be000401be000800be0059ec0700dc
:107718000002be000400be004f04be000080fa0054
:10772800000006000600fa00000f78001207980013
:10773800230798001e019000ae0190000000200071
:1077480001f8230095eb07000002be000401be000b
:107758001e00780043ff07000080fa0000000600c2
:107768000200fa00000f78001e007800caff070028
:107778000002be000401be000000200001f8230042
:1077880086eb07000002be000400be000080fa007d
:10779800000006000400fa00889fbe001007980049
:1077a8001e0290001402780094027800040320005e
:1077b800048262004422de00040f78001e02780072
:1077c800c222dd0084cd2000048242001404be00e1
:1077d8001e02900014029000140278000500200098
:1077e8000400be00ceeb07000002be00020020002d
:1077f80003f823000400be000beb07000002be00e4
:107808000401be000800be001aec07000002be001a
:107818000400be004f04be000080fa00000006000d
:107828000200fa00000f78001e0078002c00070004
:107838001e027800240290008002eb00050a7800fe
:107848001e027800140278009e02780095027800e3
:10785800150378000500280086827200050a780062
:107868000080fa00000006000200fa00000f78000d
